:1000000033C000004CC000000CC1000048C000001C
:1000100046C0000044C0000042C0000040C00000D4
:100020003EC00000D4C000003AC0000038C000004C
:1000300036C0000034C00000EAC0000030C000003C
:100040002EC000002CC000002AC0000028C0000004
:1000500026C0000025C0000022C0000020C0000013
:100060001EC000001CC0000011241FBECFEFD4E052
:10007000DEBFCDBF11E0A0E0B1E0E0E6F0E102C0FC
:1000800005900D92A835B107D9F711E0A8E5B1E0C8
:1000900001C01D92A136B107E1F772D3DFC7B0CF1F
:1000A0001F920F920FB60F921124EF92FF920F93AF
:1000B0001F932F933F934F935F936F937F938F93F0
:1000C0009F93AF93BF93EF93FF936091790070E09C
:1000D000660F771F660F771F882777FD8095982F0B
:1000E000A6D62CE53FE842E45EE355D760935D0178
:1000F00070935E0180935F019093600160911201A3
:100100007091130180911401909115012091580173
:100110003091590140915A0150915B01E0905D018D
:10012000F0905E0100915F01109160017DD5A80102
:100130009701DED5181694F090911101892F8695BC
:100140008695869580FD2EC0EBE2F0E0808180648C
:100150008083892F88608093110124C060915D01A4
:1001600070915E0180915F01909160012091120178
:10017000309113014091140150911501B9D5181611
:100180008CF090911101892F86958695869580FF38
:1001900009C0EBE2F0E080818F7B8083892F877F2D
:1001A00080931101FF91EF91BF91AF919F918F913A
:1001B0007F916F915F914F913F912F911F910F917F
:1001C000FF90EF900F900FBE0F901F9018951F9209
:1001D0000F920FB60F9211248F939F9380915C0121
:1001E0008F5F80935C0190915C0180911001981762
:1001F00039F410925C0180911101806180931101AA
:100200009F918F910F900FBE0F901F9018951F9286
:100210000F920FB60F9211240F900FBE0F901F90E8
:1002200018951F920F920FB60F9211242F933F93A0
:100230004F935F936F937F938F939F93AF93BF93EE
:10024000EF93FF938091110181608093110126D477
:10025000FF91EF91BF91AF919F918F917F916F919E
:100260005F914F913F912F910F900FBE0F901F9074
:100270001895EF92FF920F931F9380E091E060E05A
:1002800040E09DD460915D0170915E0180915F01BD
:10029000909160019ED5DC01CB0190E060E048E0E8
:1002A0008ED48091110186958695869580FF2BC00E
:1002B00087E091E061E040E082D460915D0170915F
:1002C0005E0180915F019091600120911201309157
:1002D00013014091140150911501E0905801F090E4
:1002E000590100915A0110915B019DD4A801970119
:1002F00003D56FD59B01AC0184E6289FC001112472
:1003000061E048E05CD41F910F91FF90EF90089559
:100310002F923F924F925F926F927F928F929F9215
:10032000AF92BF92CF92DF92EF92FF920F931F9303
:10033000DF93CF93CDB7DEB7C954D0400FB6F89452
:10034000DEBF0FBECDBFDE011196E7E1F1E080E434
:1003500001900D928150E1F76091120170911301AB
:100360008091140190911501C0905801D0905901CD
:10037000E0905A01F0905B01B090160100911101DC
:100380000695069510E0017010701ED5FE01EF5B1A
:10039000FF4F71836083C701B60116D5FE01ED5B87
:1003A000FF4F71836083FE01EB5BFF4FB0821182D0
:1003B000FE01E95BFF4F11830083EBD2CC24DD24E7
:1003C0000F2EFBE2AF2EBB24F02D0F2EF1E44F2EAB
:1003D0005524F02D4C0E5D1E80E090E0682E2A968C
:1003E0009FAF2A97A5C1F501808183FD52C10F2ED1
:1003F000FFEE7F2EF02D792270921101C601880F39
:10040000991FF201E80FF91F208031804F013BC195
:10041000F501808185FD8AC0FFEE7F22F401808195
:1004200091819C012F5F3F4FF2E0CF16D104C1F1C3
:1004300083E0C816D10434F4E1E0CE16D10409F00B
:100440006CC00BC0F3E0CF16D10409F449C084E0BE
:10045000C816D10409F061C04DC0B901882777FDE5
:100460008095982FE4D47B018C0120E030E040E7B8
:1004700051E43ED488231CF48FE090E054C0C801BE
:10048000B70120E030E040EA51E481D518161CF4B1
:1004900084E190E048C0C801B70196D4CB0143C0C5
:1004A000B901882777FD8095982FC1D47B018C01F5
:1004B00020E030E040E050E01BD4882384F1C80104
:1004C000B70120E030E040E85FE361D518161CF486
:1004D00081E090E028C0C801B70176D4CB0123C0E9
:1004E00033231CF48FEF93E01EC0E4E020303E077E
:1004F000A4F015C0C901522F492F1216130624F477
:1005000081E090E0582F492F852F942F99235CF498
:10051000862D2A969FAD2A9706C0C90104C0862D54
:100520002A969FAD2A97F40191838083F5018081FB
:1005300084FD8AC0FFEE7F22F401808191819C01BD
:1005400021503040F2E0CF16D104C1F183E0C8164B
:10055000D10434F4E1E0CE16D10409F06CC00BC034
:10056000F3E0CF16D10409F449C084E0C816D104E1
:1005700009F061C04DC0B901882777FD8095982F9B
:1005800056D47B018C0120E030E040E751E4B0D349
:1005900088231CF48FE090E054C0C801B70120E02C
:1005A00030E040EA51E4F3D418161CF484E190E002
:1005B00048C0C801B70108D4CB0143C0B90188279E
:1005C00077FD8095982F33D47B018C0120E030E0BB
:1005D00040E050E08DD3882384F1C801B70120E0CA
:1005E00030E040E85FE3D3D418161CF481E090E0DB
:1005F00028C0C801B701E8D3CB0123C033231CF4C2
:100600008FEF93E01EC0E4E020303E07A4F015C059
:10061000C901522F492F1216130624F481E090E0ED
:10062000582F492F852F942F99235CF4862D2A96D5
:100630009FAD2A9706C0C90104C0862D2A969FAD9A
:100640002A97F40191838083F501808183FD1BC08B
:1006500070921101F3E0CF16D10449F0C601880F62
:10066000991FF201E80FF91F2082118212C023287E
:1006700029F0872D8460809311010BC0872D8B7F1B
:100680008093110106C0F501808182FFC1CE709276
:100690001101C60182959295907F9827807F9827B7
:1006A00021E030E02C0F3D1F820F931F60E040E0FF
:1006B00086D2C601880F991FF201E80FF91F8081C9
:1006C000918161E040E07BD2F501808185FD16C01B
:1006D000809111018F7E809311010894C11CD11C5F
:1006E000DD2034F40F2EF3E0CF2EDD24F02D06C0F4
:1006F000F4E0CF16D10414F0CC24DD24F501808180
:1007000084FD16C0809111018F7E809311010894A1
:10071000C108D108DD2034F40F2EF3E0CF2EDD2404
:10072000F02D06C0F4E0CF16D10414F0CC24DD2463
:100730009091110194FD57CEF501808182FF53CE37
:10074000892F8D7E8093110124D193DDC75BDF4F0C
:100750000FB6F894DEBF0FBECDBFCF91DF911F91D2
:100760000F91FF90EF90DF90CF90BF90AF909F9050
:100770008F907F906F905F904F903F902F90089553
:100780000F931F93CF93DF9387E090E09093C50082
:100790008093C400E2ECF0E080818F7D80838081D3
:1007A0008F7E8083A1ECB0E08C918B7F8C938081D5
:1007B000846080838081826080838081877F808362
:1007C0008C9188608C938C9180618C938C918068E3
:1007D0008C938C9180648C938C918F7D8C93E7E2C9
:1007E000F0E080818E7F8083EAE2F0E080EC80831D
:1007F0008081837C80838CE38BB9ECE7F0E080819F
:1008000080648083ABE7B0E08C9183608C938081BF
:10081000806280830AE710E0F80180818062808333
:10082000808188608083808180688083E4E4F0E058
:100830008081826080838091160187BDE5E4F0E0CD
:10084000808184608083EEE6F0E080818260808336
:1008500085E08093B100E6EBF0E0808180628083E8
:10086000E0E7F0E0808181608083C0D0E4E6F0E0E2
:1008700080818068808380818860808380818460BB
:100880008083F8018081806480837894C9E2D0E01D
:10089000888184FF06C0888185FF03C0888182FD2E
:1008A00007C0809111018F7E816080931101F6D085
:1008B000888183FD11C0809111018F7E8093110189
:1008C00080FD04C0816080931101E8D08091110106
:1008D0008260809311011CDD8091110184FF06C0AC
:1008E00080FFD6CF8E7F809311010AD180911101B4
:1008F00080FFCECFBEDCCCCFE8E2F0E08081846028
:100900008083E4E2F0E08081807F8083E5E2F0E0B4
:1009100080818F6080838081886080832EE0822F39
:100920008A95F1F78081877F8083A3E2B0E09C9174
:100930009295907F8081886080832A95F1F78081ED
:10094000877F80838C91982B84F48081807F808343
:10095000E4E2F0E080818F608083E8E2F0E0808173
:100960008B7F808321E030E011C0E5E2F0E0808100
:10097000807F8083E4E2F0E080818F608083E8E222
:10098000F0E080818B7F808320E030E0822F932F06
:100990000895B2DF892BE9F7E5E2F0E080818D7FF1
:1009A00080838081886080838081877F808380814D
:1009B0008B7F808380818D7F808380818E7F808309
:1009C0008081877F80838081886080838081877F2A
:1009D000808380818B7F808380818D7F80838081F5
:1009E000816080838081877F808308958EE084B9D1
:1009F00083DF892BE9F7E5E2F0E080818D7F80835A
:100A00008081886080838081877F808380818B7FE5
:100A1000808380818260808380818E7F80838081DB
:100A2000877F8083808188608083808188608083E5
:100A300080818B7F808380818D7F808380818E7F8A
:100A400080838081877F808357DF892BE9F7E5E208
:100A5000F0E08081886080838081877F80838081CF
:100A60008B7F808380818D7F808380818E7F808358
:100A70008081877F80838081886080838081877F79
:100A80008083808184608083808182608083808194
:100A90008E7F80838081877F80830895EBE2F0E002
:100AA00080818068808328DF892BE9F7E5E2F0E028
:100AB00080818D7F80838081886080838081877F33
:100AC000808380818B7F808380818D7F8083808104
:100AD0008E7F80838081877F808380818860808310
:100AE00080818860808380818460808380818D7F25
:100AF000808380818E7F80838081877F808308953B
:100B0000EBE2F0E080818F778083F6DE892BE9F7D6
:100B1000E5E2F0E080818D7F808380818860808342
:100B20008081877F808380818B7F808380818D7FA0
:100B3000808380818E7F80838081877F8083808196
:100B40008860808380818860808380818B7F8083C0
:100B500080818D7F808380818E7F80838081877F6D
:100B600080830895C9DE892BE9F7E5E2F0E0808112
:100B70008D7F80838081886080838081886080838E
:100B800080818B7F808380818D7F808380818E7F39
:100B900080838081877F808380818860808380815B
:100BA000877F808380818B7F808380818D7F80831E
:100BB00080818E7F80838081877F80830895862FC8
:100BC00090E0642F70E0CEDFF89496DE892BE9F791
:100BD000E5E2F0E0808182608083808188608083AC
:100BE0008081877F808380818B7F8083808182600A
:100BF000808380818E7F80838081877F80838081D6
:100C0000886080838081877F808380818B7F8083E1
:100C10008081826080838081816080838081877F02
:100C20008083789408955058BB27AA270ED075C1A9
:100C300066D130F06BD120F031F49F3F11F41EF4F7
:100C40005BC10EF4E095E7FB51C1E92F77D180F34A
:100C5000BA17620773078407950718F071F49EF5B9
:100C60008FC10EF4E0950B2EBA2FA02D0B01B90108
:100C700090010C01CA01A0011124FF27591B99F012
:100C8000593F50F4503E68F11A16F040A22F232F1E
:100C9000342F4427585FF3CF469537952795A7956E
:100CA000F0405395C9F77EF41F16BA0B620B730B15
:100CB000840BBAF09150A1F0FF0FBB1F661F771F86
:100CC000881FC2F70EC0BA0F621F731F841F48F43B
:100CD000879577956795B795F7959E3F08F0B3CFC1
:100CE0009395880F08F09927EE0F979587950895AB
:100CF000D9D008F481E008950CD00FC107D140F09D
:100D0000FED030F021F45F3F19F0F0C0511139C12D
:100D1000F3C014D198F39923C9F35523B1F3951B6C
:100D2000550BBB27AA2762177307840738F09F5F0C
:100D30005F4F220F331F441FAA1FA9F333D00E2E7B
:100D40003AF0E0E830D091505040E695001CCAF7E8
:100D500029D0FE2F27D0660F771F881FBB1F2617AD
:100D600037074807AB07B0E809F0BB0B802DBF0180
:100D7000FF2793585F4F2AF09E3F510568F0B6C099
:100D800000C15F3FECF3983EDCF38695779567955D
:100D9000B795F7959F5FC9F7880F911D9695879531
:100DA00097F90895E1E0660F771F881FBB1F621750
:100DB00073078407BA0720F0621B730B840BBA0B0E
:100DC000EE1F88F7E095089504D06894B111D9C05A
:100DD0000895BCD088F09F5790F0B92F9927B7514C
:100DE000A0F0D1F0660F771F881F991F1AF0BA95EF
:100DF000C9F712C0B13081F0C3D0B1E00895C0C0CE
:100E0000672F782F8827B85F39F0B93FCCF38695E4
:100E100077956795B395D9F73EF490958095709541
:100E200061957F4F8F4F9F4F0895E89409C097FBBE
:100E30003EF490958095709561957F4F8F4F9F4FB1
:100E40009923A9F0F92F96E9BB279395F6958795F5
:100E500077956795B795F111F8CFFAF4BB0F11F4B8
:100E600060FF1BC06F5F7F4F8F4F9F4F16C088235F
:100E700011F096E911C0772321F09EE8872F762F95
:100E800005C0662371F096E8862F70E060E02AF0D6
:100E90009A95660F771F881FDAF7880F96958795C2
:100EA00097F90895990F0008550FAA0BE0E8FEEF97
:100EB00016161706E807F907C0F012161306E4071E
:100EC000F50798F0621B730B840B950B39F40A2617
:100ED00061F0232B242B252B21F408950A2609F4F5
:100EE000A140A6958FEF811D811D089597F99F67F9
:100EF00080E870E060E008959FEF80EC08950024A2
:100F00000A941616170618060906089500240A946E
:100F100012161306140605060895092E0394000CF4
:100F200011F4882352F0BB0F40F4BF2B11F460FF83
:100F300004C06F5F7F4F8F4F9F4F089557FD9058AC
:100F4000440F551F59F05F3F71F04795880F97FB8D
:100F5000991F61F09F3F79F0879508951216130647
:100F60001406551FF2CF4695F1DF08C01616170676
:100F70001806991FF1CF86957105610508940895AB
:100F8000E894BB2766277727CB0197F908958ADF76
:100F900008F48FEF08950BD0C0CFB1DF28F0B6DF93
:100FA00018F0952309F0A2CFA7CF1124EACFC6DF0E
:100FB000A0F3959FD1F3950F50E0551F629FF0016C
:100FC000729FBB27F00DB11D639FAA27F00DB11DC5
:100FD000AA1F649F6627B00DA11D661F829F22274E
:100FE000B00DA11D621F739FB00DA11D621F839FD5
:100FF000A00D611D221F749F3327A00D611D231FAB
:10100000849F600D211D822F762F6A2F11249F57F8
:1010100050408AF0E1F088234AF0EE0FFF1FBB1F1B
:10102000661F771F881F91505040A9F79E3F5105BA
:1010300070F05CCFA6CF5F3FECF3983EDCF3869573
:1010400077956795B795F795E7959F5FC1F7FE2B65
:10105000880F911D9695879597F90895F894FFCF7D
:1010600054454D50203A00434F4F4C494E472000C5
:101070000A040000A04180546172676574207465A1
:101080006D702020283129546F6C6572616E636524
:10109000202020202832294D6561737572652072E9
:1010A00061746520283329502D73617665206D6F3A
:0810B0006465202028342900AA
:00000001FF
