:1000000033C000004CC000008BC3000048C000009B
:1000100046C0000044C0000042C0000040C00000D4
:100020003EC0000048C300003AC0000064C30000A6
:1000300036C0000034C0000032C0000030C00000F4
:100040002EC000002CC000002AC0000028C0000004
:1000500026C000009CC2000022C0000020C000009A
:100060001EC000001CC0000011241FBECFEFD4E052
:10007000DEBFCDBF11E0A0E0B1E0E8E9FBE002C0E7
:1000800005900D92A835B107D9F711E0A8E5B1E0C8
:1000900001C01D92A236B107E1F7D0D17BC5B0CF28
:1000A000F89478940895EBE2F0E080818F77808374
:1000B0000895EBE2F0E08081806880830895EF92FC
:1000C000FF920F931F9380E091E060E040E0E8DF53
:1000D00060915E0170915F0180916001909161017A
:1000E00014D4DC01CB0160E048E0DADF80915801F4
:1000F00086958695869580FF2BC087E091E061E02C
:1001000040E0CEDF60915E0170915F0180916001FF
:1001100090916101209111013091120140911301E0
:1001200050911401E0905901F0905A0100915B0147
:1001300010915C0119D3A80197017FD3E6D39B01ED
:10014000AC0184E6829F802D112461E048E0A8DFA5
:100150001F910F91FF90EF9008953F924F925F9201
:100160006F927F928F929F92AF92BF92CF92DF92C7
:10017000EF92FF920F931F93DF93CF93CDB7DEB72C
:10018000C654D0400FB6F894DEBF0FBECDBFDE011F
:100190001196E7E1F1E080E401900D928150E1F7E2
:1001A00060911101709112018091130190911401DD
:1001B000C0905901D0905A01E0905B01F0905C0131
:1001C000A0901501B0901601209158012695269512
:1001D000BB24B394B2228E010F5B1F4F96D3F8015C
:1001E0006083C701B60191D3F8016183A282B38213
:1001F000CC24DD240F2EFBE26F2E7724F02D280176
:1002000080E090E0882E392ECE01019627969FAF90
:100210008EAF2797F301808183FDAEC08091580196
:100220008F7E80935801F201EC0DFD1D9080A92C6A
:10023000BB24809158018F7E80935801892D61E005
:1002400040E02EDFF301808185FD06C080915801DA
:100250008F7E809358019394F301808184FD06C0C2
:10026000809158018F7E809358019A94F301808188
:1002700082FF7EC0F2E0CF16D104C9F123E0C2169E
:10028000D10434F481E0C816D10409F055C00BC084
:1002900093E0C916D10409F44FC0E4E0CE16D104AE
:1002A00009F04AC03DC0B501882777FD8095982F99
:1002B0005AD37B018C0120E030E040EA51E403D4C2
:1002C000181634F40F2EFFE0AF2EBB24F02D34C0EF
:1002D000C801B70120E030E040E751E4AAD288230A
:1002E0005CF50F2EF4E1AF2EBB24F02D25C0B50137
:1002F000882777FD8095982F36D37B018C0120E0ED
:1003000030E040E85FE3DFD318169CF0C801B70186
:1003100020E030E040E050E08CD2882334F00CC084
:10032000F2E0AF16B1042CF407C0AA24BB24A394B6
:1003300003C0882D932D5C01F301808183FD79CF6B
:10034000F3E0CF16D10429F0F201EC0DFD1DA082DF
:1003500013C0A114B10431F08091580184608093DE
:10036000580167CF809158018B7F8093580161CFEE
:10037000F201EC0DFD1D9082C60182959295907F51
:100380009827807F982726962FAD2697820F60E0CA
:1003900040E086DEF201EC0DFD1D808161E040E071
:1003A0007FDEF301808185FD08C0809158018F7E3A
:1003B000809358010894C11CD11CF301808184FDF5
:1003C00008C0809158018F7E809358010894C1081D
:1003D000D108F301808182FF12C0F4E0CF16D1046E
:1003E0001CF0CC24DD2407C0DD202CF40F2EF3E01C
:1003F000CF2EDD24F02D8091580184FF0BCF80910A
:1004000058018D7E809358015ADECA5BDF4F0FB6CC
:10041000F894DEBF0FBECDBFCF91DF911F910F913A
:10042000FF90EF90DF90CF90BF90AF909F908F9014
:100430007F906F905F904F903F900895CF93DF93A0
:1004400087E090E09093C5008093C400E2ECF0E078
:1004500080818F7D808380818F7E8083A1ECB0E05E
:100460008C918B7F8C93808184608083808182607B
:1004700080838081877F80838C9188608C938C912E
:1004800080618C938C9180688C938C9180648C9328
:100490008C918F7D8C938FE384B9E7E2F0E08081CB
:1004A0008E7F8083EAE2F0E080EC80838081837C31
:1004B00080838CE38BB9ACE7B0E08C9180648C9343
:1004C000EAE7F0E08081866080838C9180628C9383
:1004D000808188608083808180688083E1E8F0E0AB
:1004E00080818061808380911501909116019093A5
:1004F000890080938800808185608083EFE6F0E04A
:1005000080818260808385E08093B100E6EBF0E03B
:10051000808180628083E0E7F0E080818160808379
:100520007894C9E2D0E0888184FF06C0888185FF85
:1005300003C0888182FD07C0809158018F7E816051
:1005400080935801B0DD888183FD11C080915801EE
:100550008F7E8093580180FD04C081608093580194
:10056000A2DD80915801826080935801F6DD809170
:10057000580184FF06C080FFD6CF8E7F809358013C
:1005800098DD8091580180FFCECF99DDCCCF1F92AE
:100590000F920FB60F921124EF92FF920F931F93B9
:1005A0002F933F934F935F936F937F938F939F937B
:1005B000AF93BF93EF93FF936091790070E088272A
:1005C00077FD8095982FCFD120E030E44CE955E4B9
:1005D0007ED220E030E040E85BE379D220E030E0FA
:1005E0004AEF53E4C1D020E030E040E251E425D1AD
:1005F00060935E0170935F0180936001909361014D
:100600006091110170911201809113019091140178
:100610002091590130915A0140915B0150915C0148
:10062000E0905E01F0905F01009160011091610126
:100630009CD0A8019701FDD018165CF0EBE2F0E029
:100640008081806480838091580188608093580104
:100650001DC060915E0170915F0180916001909179
:1006600061012091110130911201409113015091CB
:100670001401DFD0181654F0EBE2F0E080818F7B9C
:10068000808380915801877F80935801FF91EF917B
:10069000BF91AF919F918F917F916F915F914F919A
:1006A0003F912F911F910F91FF90EF900F900FBEF0
:1006B0000F901F9018951F920F920FB60F92112452
:1006C0008F939F9380915D018F5F80935D019091E7
:1006D0005D0180911001981729F480915801806183
:1006E0008093580110925D019F918F910F900FBEE2
:1006F0000F901F9018951F920F920FB60F92112412
:100700008F93EF93FF93EAE7F0E08081806480832A
:10071000FF91EF918F910F900FBE0F901F90189542
:100720001F920F920FB60F9211242F933F934F9366
:100730005F936F937F938F939F93AF93BF93EF9349
:10074000FF93B1DCBCDCFF91EF91BF91AF919F9122
:100750008F917F916F915F914F913F912F910F906A
:100760000FBE0F901F9018955058BB27AA270ED088
:1007700070C161D130F066D120F031F49F3F11F4A7
:100780001EF456C10EF4E095E7FB4CC1E92F72D17F
:1007900080F3BA17620773078407950718F071F49E
:1007A0009EF58AC10EF4E0950B2EBA2FA02D0B01F9
:1007B000B90190010C01CA01A0011124FF27591BA6
:1007C00099F0593F50F4503E68F11A16F040A22FAC
:1007D000232F342F4427585FF3CF4695379527951D
:1007E000A795F0405395C9F77EF41F16BA0B620B1C
:1007F000730B840BBAF09150A1F0FF0FBB1F661F63
:10080000771F881FC2F70EC0BA0F621F731F841FA5
:1008100048F4879577956795B795F7959E3F08F0CB
:10082000B3CF9395880F08F09927EE0F979587958A
:100830000895D4D008F481E008950CD00AC102D103
:1008400040F0F9D030F021F45F3F19F0EBC05111C6
:1008500034C1EEC00FD198F39923C9F35523B1F3F6
:10086000951B550BBB27AA2762177307840738F01F
:100870009F5F5F4F220F331F441FAA1FA9F333D07E
:100880000E2E3AF0E0E830D091505040E695001C32
:10089000CAF729D0FE2F27D0660F771F881FBB1FEE
:1008A000261737074807AB07B0E809F0BB0B802DC8
:1008B000BF01FF2793585F4F2AF09E3F510568F014
:1008C000B1C0FBC05F3FECF3983EDCF386957795B3
:1008D0006795B795F7959F5FC9F7880F911D969516
:1008E000879597F90895E1E0660F771F881FBB1F72
:1008F000621773078407BA0720F0621B730B840B1F
:10090000BA0BEE1F88F7E0950895BCD088F09F578A
:1009100090F0B92F9927B751A0F0D1F0660F771F4B
:10092000881F991F1AF0BA95C9F712C0B13081F02B
:10093000C3D0B1E00895C0C0672F782F8827B85F73
:1009400039F0B93FCCF3869577956795B395D9F78C
:100950003EF490958095709561957F4F8F4F9F4F96
:100960000895E89409C097FB3EF4909580957095A2
:1009700061957F4F8F4F9F4F9923A9F0F92F96E9EB
:10098000BB279395F695879577956795B795F11160
:10099000F8CFFAF4BB0F11F460FF1BC06F5F7F4FFD
:1009A0008F4F9F4F16C0882311F096E911C077230F
:1009B00021F09EE8872F762F05C0662371F096E818
:1009C000862F70E060E02AF09A95660F771F881FE7
:1009D000DAF7880F9695879597F90895990F00088B
:1009E000550FAA0BE0E8FEEF16161706E807F90701
:1009F000C0F012161306E407F50798F0621B730B9C
:100A0000840B950B39F40A2661F0232B242B252B1C
:100A100021F408950A2609F4A140A6958FEF811DBF
:100A2000811D089597F99F6780E870E060E0089560
:100A30009FEF80EC089500240A94161617061806F6
:100A40000906089500240A941216130614060506D2
:100A50000895092E0394000C11F4882352F0BB0F63
:100A600040F4BF2B11F460FF04C06F5F7F4F8F4FC6
:100A70009F4F089557FD9058440F551F59F05F3F01
:100A800071F04795880F97FB991F61F09F3F79F0B0
:100A900087950895121613061406551FF2CF469532
:100AA000F1DF08C0161617061806991FF1CF8695B4
:100AB0007105610508940895E894BB276627772798
:100AC000CB0197F908958ADF08F48FEF08950BD0D2
:100AD000C0CFB1DF28F0B6DF18F0952309F0A2CF20
:100AE000A7CF1124EACFC6DFA0F3959FD1F3950FCE
:100AF00050E0551F629FF001729FBB27F00DB11DA2
:100B0000639FAA27F00DB11DAA1F649F6627B00D31
:100B1000A11D661F829F2227B00DA11D621F739F1A
:100B2000B00DA11D621F839FA00D611D221F749F28
:100B30003327A00D611D231F849F600D211D822F6F
:100B4000762F6A2F11249F5750408AF0E1F08823B6
:100B50004AF0EE0FFF1FBB1F661F771F881F9150C3
:100B60005040A9F79E3F510570F05CCFA6CF5F3F84
:100B7000ECF3983EDCF3869577956795B795F795F6
:100B8000E7959F5FC1F7FE2B880F911D969587957E
:080B900097F90895F894FFCFD6
:100B980054454D50203A00434F4F4C494E47200092
:100BA8000A0000A0410001546172676574207465F1
:100BB8006D702020283129546F6C6572616E6365F1
:100BC800202020202832294D6561737572652072B6
:100BD80061746520283329502D73617665206D6F07
:080BE800646520202834290077
:00000001FF
