S00B000041584F2E7372656331
S113000033C000004DC000001CC1000049C0000006
S113001047C0000045C0000043C0000041C00000CC
S11300203FC0000036C100003BC0000039C00000E2
S113003037C0000035C00000D0C0000031C000004F
S11300402FC000002DC000002BC00000D0C0000055
S113005027C0000026C0000023C0000021C000000B
S11300601FC000001DC0000011241FBECFEFD4E04C
S1130070DEBFCDBF11E0A0E0B1E0EEE3F4E102C0E9
S113008005900D92A635B107D9F711E0A6E5B1E0C8
S113009001C01D92A936B107E1F7E9D30C941D0AFA
S11300A0AFCF1F920F920FB60F921124EF92FF92CF
S11300B00F931F932F933F934F935F936F937F936C
S11300C08F939F93AF93BF93EF93FF9360917900C6
S11300D070E0660F771F660F771F882777FD80957E
S11300E0982F0E9406092CE53FE842E45EE30E9453
S11300F0BA0960935B0170935C0180935D019093F6
S11301005E0160911101709112018091130190912F
S1130110140120915601309157014091580150919A
S11301205901E0905B01F0905C0100915D01109138
S11301305E0169D7A8019701CAD71816ACF090914F
S11301401001892F86958695869580FD31C0EBE256
S1130150F0E0808181608083808180648083892F46
S113016088628093100124C060915B0170915C01EE
S113017080915D0190915E012091110130911201F5
S11301804091130150911401A2D718168CF090914C
S11301901001892F86958695869580FF09C0EBE22C
S11301A0F0E080818F7B8083892F877F809310018B
S11301B0FF91EF91BF91AF919F918F917F916F913B
S11301C05F914F913F912F911F910F91FF90EF906D
S11301D00F900FBE0F901F9018951F920F920FB69D
S11301E00F9211240F900FBE0F901F9018951F921D
S11301F00F920FB60F9211248F939F93EF93FF9357
S113020080915F0190916001089794F4E0915F01FF
S1130210F0916001EF59FE4F80818093C600809178
S11302205F019091600101969093600180935F015A
S1130230FF91EF919F918F910F900FBE0F901F90A0
S113024018951F920F920FB60F9211242F933F937C
S11302504F935F936F937F938F939F93AF93BF93CA
S1130260EF93FF938091100181608093100137D642
S1130270FF91EF91BF91AF919F918F917F916F917A
S11302805F914F913F912F910F900FBE0F901F9050
S113029018951F920F920FB60F9211248F939F936C
S11302A0AF93BF93EF93FF93DF93CF9300D000D02E
S11302B0CDB7DEB780915B0190915C01A0915D01A7
S11302C0B0915E0189839A83AB83BC83A1E6B1E0DC
S11302D0FE01319688E001900D928150E1F7809102
S11302E061018093C60081E090E090936001809367
S11302F05F0180915A018F5F80935A0180915A0166
S11303008A30B9F410925A0180911001982F9061AB
S113031090931001892F82958695877080FF09C07C
S1130320EBE2F0E080818E7F8083892F8F7D809344
S113033010010F900F900F900F90CF91DF91FF91CC
S1130340EF91BF91AF919F918F910F900FBE0F903E
S11303501F901895EF92FF920F931F9380E091E006
S113036066E040E020E008D560915B0170915C019B
S113037080915D0190915E011BD7DC01CB0190E07F
S113038061E040E028E0F8D48091100186958695DC
S1130390869580FF2DC087E091E068E041E020E091
S11303A0EBD460915B0170915C0180915D0190914F
S11303B05E0120911101309112014091130150917D
S11303C01401E0905601F0905701009158011091EA
S11303D0590118D6A80197017ED6EAD69B01AC0133
S11303E084E6289FC001112461E041E028E0C4D4E0
S11303F01F910F91FF90EF9008952F923F924F928B
S11304005F926F927F928F929F92AF92BF92CF92A0
S1130410DF92EF92FF920F931F93DF93CF93CDB7A9
S1130420DEB7C954D0400FB6F894DEBF0FBECDBFBF
S1130430DE011196E6E1F1E080E401900D92815035
S1130440E1F7609111017091120180911301909173
S11304501401C0905601D0905701E0905801F090DB
S11304605901B0901501009110010695069510E010
S11304700170107098D6FE01EF5BFF4F71836083AB
S1130480C701B60190D6FE01ED5BFF4F7183608317
S1130490FE01EB5BFF4FB0821182FE01E95BFF4F6F
S11304A011830083FCD2CC24DD240F2EFBE2AF2E7B
S11304B0BB24F02D0F2EF1E44F2E5524F02D4C0EBD
S11304C05D1E80E090E0682E2A969FAF2A97A7C110
S11304D0F501808183FD52C10F2EFFEE7F2EF02D9A
S11304E0792270921001C601880F991FF201E80F5A
S11304F0F91F208031804F013BC1F501808185FDCA
S11305008AC0FFEE7F22F401808191819C012F5FDC
S11305103F4FF2E0CF16D104C1F183E0C816D104F5
S113052034F4E1E0CE16D10409F06CC00BC0F3E062
S1130530CF16D10409F449C084E0C816D10409F0E7
S113054061C04DC0B901882777FD8095982F5ED68C
S11305507B018C0120E030E040E751E4B8D58823EA
S11305601CF48FE090E054C0C801B70120E030E0F3
S113057040EA51E4FBD618161CF484E190E048C02C
S1130580C801B70110D6CB0143C0B901882777FD54
S11305908095982F3BD67B018C0120E030E040E031
S11305A050E095D5882384F1C801B70120E030E0FC
S11305B040E85FE3DBD618161CF481E090E028C025
S11305C0C801B701F0D5CB0123C033231CF48FEF4E
S11305D093E01EC0E4E020303E07A4F015C0C9013A
S11305E0522F492F1216130624F481E090E0582F5D
S11305F0492F852F942F99235CF4862D2A969FAD3D
S11306002A9706C0C90104C0862D2A969FAD2A9751
S1130610F40191838083F501808184FD8AC0FFEE1B
S11306207F22F401808191819C0121503040F2E0CD
S1130630CF16D104C1F183E0C816D10434F4E1E04B
S1130640CE16D10409F06CC00BC0F3E0CF16D10470
S113065009F449C084E0C816D10409F061C04DC052
S1130660B901882777FD8095982FD0D57B018C011F
S113067020E030E040E751E42AD588231CF48FE0E1
S113068090E054C0C801B70120E030E040EA51E4F2
S11306906DD618161CF484E190E048C0C801B70177
S11306A082D5CB0143C0B901882777FD8095982F67
S11306B0ADD57B018C0120E030E040E050E007D56F
S11306C0882384F1C801B70120E030E040E85FE30B
S11306D04DD618161CF481E090E028C0C801B7017B
S11306E062D5CB0123C033231CF48FEF93E01EC0EB
S11306F0E4E020303E07A4F015C0C901522F492F71
S11307001216130624F481E090E0582F492F852F08
S1130710942F99235CF4862D2A969FAD2A9706C0C0
S1130720C90104C0862D2A969FAD2A97F4019183AE
S11307308083F501808183FD1BC070921001F3E07A
S1130740CF16D10449F0C601880F991FF201E80FB2
S1130750F91F2082118212C0232829F0872D84607A
S1130760809310010BC0872D8B7F8093100106C0EE
S1130770F501808182FFC1CE70921001C60182957D
S11307809295907F9827807F982721E030E02C0F66
S11307903D1F820F931F60E140E020E0EDD2C601CF
S11307A0880F991FF201E80FF91F8081918161E0A0
S11307B041E020E0E1D2F501808185FD16C0809101
S11307C010018F7E809310010894C11CD11CDD2080
S11307D034F40F2EF3E0CF2EDD24F02D06C0F4E028
S11307E0CF16D10414F0CC24DD24F501808184FDDE
S11307F016C0809110018F7E809310010894C10867
S1130800D108DD2034F40F2EF3E0CF2EDD24F02DBB
S113081006C0F4E0CF16D10414F0CC24DD2490916A
S1130820100194FD55CEF501808182FF51CE892FB0
S11308308D7E8093100133D18DDDC75BDF4F0FB602
S1130840F894DEBF0FBECDBFCF91DF911F910F9102
S1130850FF90EF90DF90CF90BF90AF909F908F90DC
S11308607F906F905F904F903F902F9008950F93DB
S11308701F93CF93DF9387E090E09093C50080931C
S1130880C400E2ECF0E080818F7D808380818F7EE4
S11308908083A1ECB0E08C918B7F8C938081846009
S11308A080838081826080838081877F80838C9134
S11308B088608C938C918F7E8C938C918F778C93A2
S11308C08C9180648C938C918F7D8C93E7E2F0E023
S11308D080818E7F8083EAE2F0E081EC80838081F6
S11308E0837C80838CE38BB9ECE7F0E080818064C7
S11308F08083ABE7B0E08C9183608C9380818062CD
S113090080830AE710E0F80180818062808380811F
S113091088608083808180688083EEE7F0E0808156
S113092081608083E4E4F0E0808182608083809150
S1130930150187BDE5E4F0E0808184608083EEE604
S1130940F0E080818260808385E08093B100E6EBF3
S1130950F0E0808180628083E0E7F0E08081816064
S11309608083D6D0E4E6F0E0808180688083808153
S113097088608083808184608083E0E5F0E080810A
S113098080688083F8018081806480837894C9E2E0
S1130990D0E0888184FF06C0888185FF03C08881F8
S11309A082FD07C0809110018F7E816080931001C9
S11309B096D2888183FD11C0809110018F7E80932F
S11309C0100180FD04C081608093100188D2809161
S11309D0100182608093100110DD8091100184FF6A
S11309E006C080FFD6CF8E7F80931001C1D2809144
S11309F0100180FFCECFAEDCCCCFE8E2F0E0808106
S1130A008D7F8083808184608083A4E2B0E08C91B8
S1130A10807F8C93A5E2B0E08C91807F8C93808161
S1130A20886080832DE0822F8A95F1F78081877F0B
S1130A308083A3E2B0E09C919295907F808188604E
S1130A4080832A95F1F78081877F80838C91982B0E
S1130A5094F4E5E2F0E08081807F8083E4E2F0E0DA
S1130A6080818F608083E8E2F0E080818B7F8083E7
S1130A7021E030E011C0E5E2F0E08081807F8083F6
S1130A80E4E2F0E080818F608083E8E2F0E080813E
S1130A908B7F808320E030E0822F932F0895ADDF99
S1130AA0892BE9F7A8E2B0E08C918D7F8C93E5E285
S1130AB0F0E08081877F808380818B7F8083808149
S1130AC08D7F808380818E7F80838C9188608C93DE
S1130AD09DE0892F8A95F1F78C91877F8C93808193
S1130AE0877F808380818B7F808380818D7F8083DB
S1130AF08081816080838C9188608C939A95F1F7D2
S1130B008C91877F8C9384EF91E00197F1F708959E
S1130B1086EA9EE00197F1F78EE087B96EDF892BB4
S1130B20E9F7A8E2B0E08C918D7F8C93E5E2F0E0E8
S1130B308081877F808380818B7F808380818260B6
S1130B40808380818E7F80838C9188608C938DE0FC
S1130B508A95F1F78C91877F8C934FDF892BE9F786
S1130B60A8E2B0E08C918D7F8C93E5E2F0E0808187
S1130B708860808380818B7F808380818D7F808368
S1130B8080818E7F80838C9188608C938DE08A95A0
S1130B90F1F78C91877F8C9330DF892BE9F7E5E2BD
S1130BA0F0E08081877F808380818B7F8083808158
S1130BB08D7F808380818E7F8083E8E2F0E0808176
S1130BC0886080838DE08A95F1F78081877F8083B8
S1130BD014DF892BE9F7A8E2B0E08C918D7F8C9328
S1130BE0E5E2F0E08081877F808380818460808378
S1130BF080818260808380818E7F80838C918860F5
S1130C008C939DE0892F8A95F1F78C91877F8C9343
S1130C109A95F1F744CF1F938295807F182F160F72
S1130C20ECDE892BE9F7E8E2F0E080818D7F8083B8
S1130C30E5E2F0E0808188608083812F829586954B
S1130C408695837080FF05C0808184608083E08105
S1130C5006C0E5E2F0E080818B7F8083E081812F14
S1130C6082958695877080FF07C0E5E2F0E0808179
S1130C7082608083E08106C0E5E2F0E080818D7FC0
S1130C808083E081812F82958F7080FF07C0E5E229
S1130C90F0E0808181608083E08106C0E5E2F0E0DD
S1130CA080818E7F8083E081E8E2F0E0808188604B
S1130CB080838DE08A95F1F78081877F80839DDE34
S1130CC0892BE9F7E8E2F0E080818D7F8083812F32
S1130CD086958695869580FF07C0E5E2F0E08081E1
S1130CE088608083E08106C0E5E2F0E08081877F50
S1130CF08083E081812F8695869580FF07C0E5E299
S1130D00F0E0808184608083E08106C0E5E2F0E069
S1130D1080818B7F8083E081812F869580FF07C04F
S1130D20E5E2F0E0808182608083E08106C0E5E254
S1130D30F0E080818D7F8083E08110FF07C0E5E2D1
S1130D40F0E0808181608083E08106C0E5E2F0E02C
S1130D5080818E7F8083E081E8E2F0E0808188609A
S1130D6080839DE0892F8A95F1F78081877F808336
S1130D709A95F1F71F910895BF92CF92DF92EF9267
S1130D80FF920F931F93CF93DF937C01162F842F31
S1130D90622F41DFC12EDD241C141D040CF095C00C
S1130DA008E210E00F2EFDE0BF2EF02DC5E2D0E0EA
S1130DB024DE892BE9F7F894F8018081826080832E
S1130DC0F701908199232CF4888188608883888135
S1130DD004C08881877F8883888196FF05C08881C5
S1130DE084608883888104C088818B7F888388811C
S1130DF095FF05C0888182608883888104C08881CA
S1130E008D7F8883888194FF05C088818160888371
S1130E10888104C088818E7F88838881F8018081DD
S1130E20886080838B2D8A95F1F78081877F80830A
S1130E30E4DD892BE9F7F80180818D7F8083F70158
S1130E40908193FF05C0888188608883888104C06D
S1130E508881877F8883888192FF05C08881846028
S1130E608883888104C088818B7F8883888191FFEF
S1130E7005C0888182608883888104C088818D7FD1
S1130E808883888190FF05C08881816088838881F8
S1130E9004C088818E7F88838881F801808188607E
S1130EA080838B2D8A95F1F78081877F8083789466
S1130EB08B2D8A95F1F70894C108D108C114D10487
S1130EC021F00894E11CF11C73CFDF91CF911F91A5
S1130ED00F91FF90EF90DF90CF90BF900895EBE2D9
S1130EE0F0E080818068808388DD892BE9F7A8E2BF
S1130EF0B0E08C918D7F8C93E5E2F0E08081877F78
S1130F00808380818B7F808380818D7F80838081BB
S1130F108E7F80838C9188608C938DE08A95F1F725
S1130F208C91877F8C9369DD892BE9F7A8E2B0E087
S1130F308C918D7F8C93E5E2F0E0808188608083E2
S1130F4080818460808380818260808380818E7FC1
S1130F5080838C9188608C939DE0892F8A95F1F72A
S1130F608C91877F8C939A95F1F780E060E053CE63
S1130F70EBE2F0E080818F7780833FDD892BE9F716
S1130F80A8E2B0E08C918D7F8C93E5E2F0E0808163
S1130F90877F808380818B7F808380818D7F808326
S1130FA080818E7F80838C9188608C938DE08A957C
S1130FB0F1F78C91877F8C9320DD892BE9F7A8E2E8
S1130FC0B0E08C918D7F8C93E5E2F0E080818860C5
S1130FD0808380818B7F8083808182608083808115
S1130FE08E7F80838C9188608C939DE0892F8A9575
S1130FF0F1F78C91877F8C939A95F1F78081807FAC
S1131000808308955058BB27AA270ED075C166D196
S113101030F06BD120F031F49F3F11F41EF45BC12A
S11310200EF4E095E7FB51C1E92F77D180F3BA17AD
S1131030620773078407950718F071F49EF58FC152
S11310400EF4E0950B2EBA2FA02D0B01B9019001DF
S11310500C01CA01A0011124FF27591B99F0593F23
S113106050F4503E68F11A16F040A22F232F342F6B
S11310704427585FF3CF469537952795A795F040B9
S11310805395C9F77EF41F16BA0B620B730B840BCE
S1131090BAF09150A1F0FF0FBB1F661F771F881F86
S11310A0C2F70EC0BA0F621F731F841F48F48795DE
S11310B077956795B795F7959E3F08F0B3CF9395CD
S11310C0880F08F09927EE0F979587950895D9D042
S11310D008F481E008950CD00FC107D140F0FED090
S11310E030F021F45F3F19F0F0C0511139C1F3C061
S11310F014D198F39923C9F35523B1F3951B550BD8
S1131100BB27AA2762177307840738F09F5F5F4FD6
S1131110220F331F441FAA1FA9F333D00E2E3AF017
S1131120E0E830D091505040E695001CCAF729D031
S1131130FE2F27D0660F771F881FBB1F2617370780
S11311404807AB07B0E809F0BB0B802DBF01FF27B0
S113115093585F4F2AF09E3F510568F0B6C000C116
S11311605F3FECF3983EDCF3869577956795B795EA
S1131170F7959F5FC9F7880F911D9695879597F905
S11311800895E1E0660F771F881FBB1F621773077E
S11311908407BA0720F0621B730B840BBA0BEE1F93
S11311A088F7E095089504D06894B111D9C00895E2
S11311B0BCD088F09F5790F0B92F9927B751A0F071
S11311C0D1F0660F771F881F991F1AF0BA95C9F7D7
S11311D012C0B13081F0C3D0B1E00895C0C0672F10
S11311E0782F8827B85F39F0B93FCCF38695779587
S11311F06795B395D9F73EF4909580957095619570
S11312007F4F8F4F9F4F0895E89409C097FB3EF49A
S113121090958095709561957F4F8F4F9F4F99233F
S1131220A9F0F92F96E9BB279395F69587957795BD
S11312306795B795F111F8CFFAF4BB0F11F460FF7D
S11312401BC06F5F7F4F8F4F9F4F16C0882311F0D5
S113125096E911C0772321F09EE8872F762F05C0E9
S1131260662371F096E8862F70E060E02AF09A9584
S1131270660F771F881FDAF7880F9695879597F979
S11312800895990F0008550FAA0BE0E8FEEF161613
S11312901706E807F907C0F012161306E407F50766
S11312A098F0621B730B840B950B39F40A2661F0DA
S11312B0232B242B252B21F408950A2609F4A1407D
S11312C0A6958FEF811D811D089597F99F6780E88A
S11312D070E060E008959FEF80EC089500240A9484
S11312E01616170618060906089500240A941216FD
S11312F01306140605060895092E0394000C11F430
S1131300882352F0BB0F40F4BF2B11F460FF04C0DC
S11313106F5F7F4F8F4F9F4F089557FD9058440F35
S1131320551F59F05F3F71F04795880F97FB991F40
S113133061F09F3F79F087950895121613061406FD
S1131340551FF2CF4695F1DF08C01616170618068A
S1131350991FF1CF86957105610508940895E89465
S1131360BB2766277727CB0197F908958ADF08F40E
S11313708FEF08950BD0C0CFB1DF28F0B6DF18F09F
S1131380952309F0A2CFA7CF1124EACFC6DFA0F39B
S1131390959FD1F3950F50E0551F629FF001729F06
S11313A0BB27F00DB11D639FAA27F00DB11DAA1F25
S11313B0649F6627B00DA11D661F829F2227B00D72
S11313C0A11D621F739FB00DA11D621F839FA00DFD
S11313D0611D221F749F3327A00D611D231F849F4D
S11313E0600D211D822F762F6A2F11249F575040A4
S11313F08AF0E1F088234AF0EE0FFF1FBB1F661F3F
S1131400771F881F91505040A9F79E3F510570F0F7
S11314105CCFA6CF5F3FECF3983EDCF386957795DF
S11314206795B795F795E7959F5FC1F7FE2B880FF2
S1111430911D9695879597F90895F894FFCF2E
S113143E54454D50203A00434F4F4C494E472000DF
S113144E040000A041805461726765742074656D58
S113145E702020283129546F6C6572616E6365208B
S113146E2020202832294D656173757265207261C2
S113147E746520283329502D73617665206D6F6451
S109148E6520202834292A
S9030000FC
