:1000000033C000004CC000000CC1000048C000001C
:1000100046C0000044C0000042C0000040C00000D4
:100020003EC00000D4C000003AC0000038C000004C
:1000300036C0000034C00000EAC0000030C000003C
:100040002EC000002CC000002AC0000028C0000004
:1000500026C0000025C0000022C0000020C0000013
:100060001EC000001CC0000011241FBECFEFD4E052
:10007000DEBFCDBF11E0A0E0B1E0EAE8FCE002C0E5
:1000800005900D92A634B107D9F711E0A6E4B1E0CE
:1000900001C01D92A035B107E1F7FCD2F4C5B0CF85
:1000A0001F920F920FB60F921124EF92FF920F93AF
:1000B0001F932F933F934F935F936F937F938F93F0
:1000C0009F93AF93BF93EF93FF936091790070E09C
:1000D000660F771F660F771F882777FD8095982F0B
:1000E000BBD42CE53FE842E45EE36AD560934C0163
:1000F00070934D0180934E0190934F0160910101E7
:1001000070910201809103019091040120914701B7
:10011000309148014091490150914A01E0904C01D1
:10012000F0904D0100914E0110914F01FAD3A801BA
:1001300097015BD4181694F090914601892F86950B
:100140008695869580FD2EC0EBE2F0E0808180648C
:100150008083892F88608093460124C060914C0180
:1001600070914D0180914E0190914F0120910101BC
:1001700030910201409103015091040136D41816C8
:100180008CF090914601892F86958695869580FF03
:1001900009C0EBE2F0E080818F7B8083892F877F2D
:1001A00080934601FF91EF91BF91AF919F918F9105
:1001B0007F916F915F914F913F912F911F910F917F
:1001C000FF90EF900F900FBE0F901F9018951F9209
:1001D0000F920FB60F9211248F939F9380914B0132
:1001E0008F5F80934B0190914B0180910001981794
:1001F00039F410924B018091460180618093460151
:100200009F918F910F900FBE0F901F9018951F9286
:100210000F920FB60F9211240F900FBE0F901F90E8
:1002200018951F920F920FB60F9211248F93809101
:1002300046018160809346018F910F900FBE0F9011
:100240001F9018952F923F924F925F926F927F92DC
:100250008F929F92AF92BF92CF92DF92EF92FF92D6
:100260000F931F93DF93CF93CDB7DEB7C854D04021
:100270000FB6F894DEBF0FBECDBFDE011196E6E0EB
:10028000F1E080E401900D928150E1F7609101016D
:10029000709102018091030190910401C090470187
:1002A000D0904801E0904901F0904A01B0900501DA
:1002B000009146010695069510E00170107099D3E3
:1002C000FE01EF5BFF4F71836083C701B60191D3DD
:1002D000FE01ED5BFF4F71836083FE01EB5BFF4F1F
:1002E000B0821182FE01E95BFF4F118300838AD245
:1002F000CC24DD240F2EFBE2AF2EBB24F02D0F2EDD
:10030000F1E46F2E7724F02D6C0E7D1E0F2EFFE092
:100310004F2E5524F02D1E010894211C311CF5018F
:10032000808183FD40C1809146018F7E809346018C
:10033000C601880F991FF301E80FF91F8080918093
:100340008401809146018F7E80934601C80161E05F
:1003500070E040E050E0B0D2F501808185FD7AC0C8
:10036000809146018F7E809346010F5F1F4FF2E020
:10037000CF16D104B9F183E0C816D10434F4E1E01A
:10038000CE16D10409F066C00BC0F3E0CF16D1043D
:1003900009F448C084E0C816D10409F05BC04CC021
:1003A000B801882777FD8095982F56D37B018C0163
:1003B00020E030E040E751E418D3882314F48201B0
:1003C00049C0C801B70120E030E040EA51E4F4D36D
:1003D00018161CF404E110E03DC0C801B70109D3B0
:1003E0008B0138C0B801882777FD8095982F34D3CA
:1003F0007B018C0120E030E040E050E0F6D2882321
:100400003CF1C801B70120E030E040E85FE3D4D31D
:1004100018161CF401E010E01DC0C801B701E9D2B4
:100420008B0118C011231CF40FEF13E013C0E4E09C
:1004300000301E077CF00CC0C8011016110614F421
:1004400081E090E08C0199232CF400E010E002C0E0
:1004500000E010E0F501808184FD7AC080914601C2
:100460008F7E8093460101501040F2E0CF16D104F8
:10047000B9F183E0C816D10434F4E1E0CE16D1041A
:1004800009F066C00BC0F3E0CF16D10409F448C0F0
:1004900084E0C816D10409F05BC04CC0B8018827BD
:1004A00077FD8095982FD8D27B018C0120E030E039
:1004B00040E751E49AD2882314F4820149C0C8016C
:1004C000B70120E030E040EA51E476D318161CF47E
:1004D00004E110E03DC0C801B7018BD28B0138C0E8
:1004E000B801882777FD8095982FB6D27B018C01C3
:1004F00020E030E040E050E078D288233CF1C801B1
:10050000B70120E030E040E85FE356D318161CF452
:1005100001E010E01DC0C801B7016BD28B0118C00B
:1005200011231CF40FEF13E013C0E4E000301E07AA
:100530007CF00CC0C8011016110614F481E090E0A4
:100540008C0199232CF400E010E002C000E010E0E0
:10055000F501808182FF1FC0808183FDF2CEF3E030
:10056000CF16D10449F0C601880F991FF301E80F97
:10057000F91F8082118217C08114910431F080919B
:100580004601846080934601DCCE809146018B7FDA
:1005900080934601D6CEC601880F991FF301E80F5C
:1005A000F91F11830083C60182959295907F982749
:1005B000807F9827820D931D60E070E040E050E05E
:1005C0007BD1C601880F991FF301E80FF91F8081C5
:1005D000918161E070E040E050E06ED1F5018081F2
:1005E00085FD16C0809146018F7E80934601089458
:1005F000C11CD11CDD2034F40F2EF3E0CF2EDD24FE
:10060000F02D06C0F4E0CF16D10414F0CC24DD2484
:10061000F501808184FD16C0809146018F7E809314
:1006200046010894C108D108DD2034F40F2EF3E010
:10063000CF2EDD24F02D06C0F4E0CF16D10414F047
:10064000CC24DD24F501808182FF04C08091460125
:1006500084FF65CE809146018D7E80934601D2D085
:10066000C85BDF4F0FB6F894DEBF0FBECDBFCF9192
:10067000DF911F910F91FF90EF90DF90CF90BF908F
:10068000AF909F908F907F906F905F904F903F9032
:100690002F900895CF93DF9387E090E09093C5006B
:1006A0008093C400E2ECF0E080818F7D80838081C4
:1006B0008F7E8083A1ECB0E08C918B7F8C938081C6
:1006C000846080838081826080838081877F808353
:1006D0008C9188608C938C9180618C938C918068D4
:1006E0008C938C9180648C938C918F7D8C93E7E2BA
:1006F000F0E080818E7F8083EAE2F0E080EC80830E
:100700008081837C80838CE38BB9ECE7F0E080818F
:1007100080648083ABE7B0E08C9183608C938081B0
:1007200080628083AAE7B0E08C9180628C938C9188
:1007300088608C938C9180688C93E4E4F0E08081F5
:10074000826080838091050187BDE5E4F0E08081CF
:1007500084608083EEE6F0E080818260808385E0C3
:100760008093B100E6EBF0E0808180628083E0E777
:10077000F0E0808181608083E4E6F0E08081806841
:1007800080838081886080838081846080838C9175
:1007900080648C937894C9E2D0E0888184FF06C09D
:1007A000888185FF03C0888182FD06C08091460153
:1007B0008F7E816080934601888183FD10C0809187
:1007C00046018F7E8093460180FD03C08160809347
:1007D00046018091460182608093460133DD80911D
:1007E000460184FFDACF80FFD8CF8E7F8093460109
:1007F000D4CF8EE0982F9A95F1F78A95F1F781E0A2
:1008000090E00895F6DF892BE9F7E5E2F0E08081DA
:100810008F7D80838081806180838081877F8083DA
:1008200080818B7F808380818D7F808380818E7F9C
:10083000808380818F7E80838081806180838081BE
:10084000877F808380818B7F808380818D7F808381
:1008500080818160808380818F7E80830895C9DF5D
:10086000892BE9F7E5E2F0E080818F7D808380814C
:100870008061808380818860808380818B7F80839A
:1008800080818D7F808380818E7F808380818F7E39
:1008900080838081806180838081877F8083808165
:1008A0008B7F808380818D7F808380818E7F80831A
:1008B00080818F7E80830895862F90E0642F70E082
:1008C000CEDFF89496DF892BE9F7E5E2F0E080814E
:1008D000806280838081806180838081877F808344
:1008E00080818B7F808380818260808380818E7F06
:1008F000808380818F7E80838081806180838081FE
:10090000877F808380818B7F8083808182608083EA
:1009100080818160808380818F7E80837894089538
:100920005058BB27AA270ED00DC1FED030F003D1FE
:1009300020F031F49F3F11F41EF4F3C00EF4E09563
:10094000E7FBE9C0E92F0FD180F3BA1762077307FD
:100950008407950718F071F49EF527C10EF4E09511
:100960000B2EBA2FA02D0B01B90190010C01CA0169
:10097000A0011124FF27591B99F0593F50F4503E14
:1009800068F11A16F040A22F232F342F4427585F06
:10099000F3CF469537952795A795F0405395C9F71E
:1009A0007EF41F16BA0B620B730B840BBAF09150D6
:1009B000A1F0FF0FBB1F661F771F881FC2F70EC075
:1009C000BA0F621F731F841F48F487957795679548
:1009D000B795F7959E3F08F0B3CF9395880F08F031
:1009E0009927EE0F97958795089571D008F481E0C7
:1009F000089504D06894B111D9C00895BCD088F08E
:100A00009F5790F0B92F9927B751A0F0D1F0660FFA
:100A1000771F881F991F1AF0BA95C9F712C0B13015
:100A200081F0C3D0B1E00895C0C0672F782F882728
:100A3000B85F39F0B93FCCF3869577956795B39554
:100A4000D9F73EF490958095709561957F4F8F4FC3
:100A50009F4F0895E89409C097FB3EF490958095C8
:100A6000709561957F4F8F4F9F4F9923A9F0F92F74
:100A700096E9BB279395F695879577956795B795F2
:100A8000F111F8CFFAF4BB0F11F460FF1BC06F5FD8
:100A90007F4F8F4F9F4F16C0882311F096E911C0EA
:100AA000772321F09EE8872F762F05C0662371F00B
:100AB00096E8862F70E060E02AF09A95660F771F1F
:100AC000881FDAF7880F9695879597F90895990FFB
:100AD0000008550FAA0BE0E8FEEF16161706E80708
:100AE000F907C0F012161306E407F50798F0621B29
:100AF000730B840B950B39F40A2661F0232B242BFE
:100B0000252B21F408950A2609F4A140A6958FEF1C
:100B1000811D811D089597F99F6780E870E060E06E
:100B200008959FEF80EC089500240A941616170686
:100B300018060906089500240A94121613061406CE
:100B400005060895092E0394000C11F4882352F031
:100B5000BB0F40F4BF2B11F460FF04C06F5F7F4FE9
:100B60008F4F9F4F089557FD9058440F551F59F0D0
:100B70005F3F71F04795880F97FB991F61F09F3F8A
:100B800079F087950895121613061406551FF2CFB3
:100B90004695F1DF08C0161617061806991FF1CF03
:100BA00086957105610508940895E894BB2766272A
:100BB0007727CB0197F908958ADF08F48FEF08951E
:100BC0000BD0C0CFB1DF28F0B6DF18F0952309F0C5
:100BD000A2CFA7CF1124EACFC6DFA0F3959FD1F310
:100BE000950F50E0551F629FF001729FBB27F00DDB
:100BF000B11D639FAA27F00DB11DAA1F649F662730
:100C0000B00DA11D661F829F2227B00DA11D621F7E
:100C1000739FB00DA11D621F839FA00D611D221F38
:100C2000749F3327A00D611D231F849F600D211D1C
:100C3000822F762F6A2F11249F5750408AF0E1F0BF
:100C400088234AF0EE0FFF1FBB1F661F771F881F08
:100C500091505040A9F79E3F510570F05CCFA6CF50
:100C60005F3FECF3983EDCF3869577956795B795F3
:100C7000F795E7959F5FC1F7FE2B880F911D96951D
:0A0C8000879597F90895F894FFCFC7
:100C8A000A0000A041805461726765742074656D22
:100C9A00702020283129546F6C6572616E6365205B
:100CAA002020202832294D65617375726520726192
:100CBA00746520283329502D73617665206D6F6421
:060CCA00652020283429FA
:00000001FF
