S00B000041584F2E7372656331
S113000033C000004CC000003FC4000048C00000E2
S113001046C0000044C0000042C0000040C00000D0
S11300203EC0000007C400003AC0000038C0000011
S113003036C0000034C000001DC4000030C0000001
S11300402EC000002CC000002AC0000028C0000000
S113005026C0000058C3000022C0000020C00000D9
S11300601EC000001CC0000011241FBECFEFD4E04E
S1130070DEBFCDBF11E0A0E0B1E0E2E1FDE002C0EF
S113008005900D92A635B107D9F711E0A6E5B1E0C8
S113009001C01D92A136B107E1F787D238C6B0CFAF
S11300A0F89478940895EBE2F0E08081806880838E
S11300B00895EBE2F0E080818F7780830895EF92DA
S11300C0FF920F931F9380E091E060E040E0E8DF4F
S11300D060915D0170915E0180915F01909160017A
S11300E0D1D4DC01CB0160E048E0DADF8091560135
S11300F086958695869580FF2BC087E091E061E028
S113010040E0CEDF60915D0170915E0180915F01FE
S113011090916001209111013091120140911301DD
S113012050911401E0905701F09058010091590149
S113013010915A01D1D3A801970137D4A3D49B01BC
S1130140AC0184E6829F802D112461E048E0A8DFA1
S11301501F910F91FF90EF9008952F923F924F922D
S11301605F926F927F928F929F92AF92BF92CF9243
S1130170DF92EF92FF920F931F93DF93CF93CDB74C
S1130180DEB7CA54D0400FB6F894DEBF0FBECDBF61
S1130190DE011196E5E1F1E080E401900D928150D9
S11301A0E1F7609111017091120180911301909116
S11301B01401C0905701D0905801E0905901F0907B
S11301C05A01B0905B01009156010695069510E026
S11301D00170107052D4FE01EF5BFF4F7183608396
S11301E0C701B6014AD4FE01ED5BFF4F7183608302
S11301F0FE01EB5BFF4FB0821182FE01E95BFF4F12
S113020011830083CC24DD240F2EFBE2AF2EBB240C
S1130210F02D0F2EF1E44F2E5524F02D4C0E5D1EC3
S113022080E090E0382E292E662477246394CE0152
S113023001962B969FAF8EAF2B97F501808183FD9E
S113024040C1809156018F7E80935601C601880F6C
S1130250991FF201E80FF91F808091808401809139
S113026056018F7E80935601802F61E040E018DFB5
S1130270F501808185FD7BC0809156018F7E80933E
S113028056010F5F1F4FF2E0CF16D104C1F123E0F6
S1130290C216D10434F481E0C816D10409F067C051
S11302A00BC093E0C916D10409F448C0E4E0CE16AB
S11302B0D10409F05CC04CC0B801882777FD809553
S11302C0982F0ED47B018C0120E030E040E751E40C
S11302D068D388231CF40FE010E049C0C801B701BB
S11302E020E030E040EA51E4ABD418161CF404E1F9
S11302F010E03DC0C801B701C0D38B0138C0B801BC
S1130300882777FD8095982FEBD37B018C0120E023
S113031030E040E050E045D3882334F1C801B70110
S113032020E030E040E85FE38BD4181614F4830136
S11303301EC0C801B701A1D38B0119C011231CF43D
S11303400FEF13E014C0F4E000301F0784F00CC07A
S1130350C801101611060CF4C3018C0199233CF456
S1130360832D922D8C0103C0832D922D8C01F501D8
S1130370808184FD7BC0809156018F7E80935601DD
S113038001501040F2E0CF16D104C1F123E0C216AF
S1130390D10434F481E0C816D10409F067C00BC05D
S11303A093E0C916D10409F448C0E4E0CE16D104A0
S11303B009F05CC04CC0B801882777FD8095982F60
S11303C08FD37B018C0120E030E040E751E4E9D297
S11303D088231CF40FE010E049C0C801B70120E0F5
S11303E030E040EA51E42CD418161CF404E110E087
S11303F03DC0C801B70141D38B0138C0B80188277B
S113040077FD8095982F6CD37B018C0120E030E040
S113041040E050E0C6D2882334F1C801B70120E09F
S113042030E040E85FE30CD4181614F483011EC0D6
S1130430C801B70122D38B0119C011231CF40FEF9B
S113044013E014C0F4E000301F0784F00CC0C801AE
S1130450101611060CF4C3018C0199233CF4832D6E
S1130460922D8C0103C0832D922D8C01F501808186
S113047082FF1FC0808183FDF2CEF3E0CF16D1044A
S113048049F0C601880F991FF201E80FF91F808215
S1130490118217C08114910431F080915601846057
S11304A080935601DCCE809156018B7F8093560158
S11304B0D6CEC601880F991FF201E80FF91F1183E8
S11304C00083C60182959295907F9827807F982714
S11304D02A962FAD2A97820F60E040E0E1DDC60145
S11304E0880F991FF201E80FF91F808161E040E055
S11304F0D7DDF501808185FD16C0809156018F7E80
S1130500809356010894C11CD11CDD2034F40F2EB5
S1130510F3E0CF2EDD24F02D06C0F4E0CF16D10495
S113052014F0CC24DD24F501808184FD16C0809173
S113053056018F7E809356010894C108D108DD20AE
S113054034F40F2EF3E0CF2EDD24F02D06C0F4E0BA
S1130550CF16D10414F0CC24DD24F501808182FF70
S113056004C08091560184FF68CE809156018D7E2F
S113057080935601A4DDC65BDF4F0FB6F894DEBF4F
S11305800FBECDBFCF91DF911F910F91FF90EF90E0
S1130590DF90CF90BF90AF909F908F907F906F909F
S11305A05F904F903F902F900895CF93DF9387E013
S11305B090E09093C5008093C400E2ECF0E0808169
S11305C08F7D808380818F7E8083A1ECB0E08C91CD
S11305D08B7F8C9380818460808380818260808320
S11305E08081877F80838C9188608C938C918061DB
S11305F08C938C9180688C938C9180648C938C9177
S11306008F7D8C938FE384B9E7E2F0E080818E7F65
S11306108083EAE2F0E080EC80838081837C8083C5
S11306208CE38BB9ECE7F0E0808180648083ABE7F6
S1130630B0E08C9183608C93808180628083AAE790
S1130640B0E08C9180628C938C9188608C938C91B7
S113065080688C93E4E4F0E0808182608083809100
S11306605B0187BDE5E4F0E0808184608083EEE691
S1130670F0E080818260808385E08093B100E6EBC6
S1130680F0E0808180628083E0E7F0E08081816037
S113069080838C9180648C937894C9E2D0E08881C3
S11306A084FF06C0888185FF03C0888182FD07C05E
S11306B0809156018F7E816080935601F4DC88819D
S11306C083FD11C0809156018F7E8093560180FD79
S11306D004C0816080935601E6DC809156018260FB
S11306E0809356013ADD8091560184FF06C080FF55
S11306F004C08E7F80935601DCDC8091560180FF1C
S1130700CECFDDDCCCCF1F920F920FB60F92112407
S1130710EF92FF920F931F932F933F934F935F9307
S11307206F937F938F939F93AF93BF93EF93FF93B5
S11307306091790070E0660F771F660F771F882736
S113074077FD8095982FCCD12CE53FE842E45EE319
S11307507BD260935D0170935E0180935F019093FF
S113076060016091110170911201809113019091C7
S11307701401209157013091580140915901509131
S11307805A01E0905D01F0905E0100915F011091CB
S11307906001A3D0A801970104D1181694F0909198
S11307A05601892F86958695869580FD2EC0EBE2AD
S11307B0F0E0808180648083892F88608093560173
S11307C024C060915D0170915E0180915F01909100
S11307D06001209111013091120140911301509157
S11307E01401DFD018168CF090915601892F86954C
S11307F08695869580FF09C0EBE2F0E080818F7BCF
S11308008083892F877F80935601FF91EF91BF9159
S1130810AF919F918F917F916F915F914F913F9194
S11308202F911F910F91FF90EF900F900FBE0F909B
S11308301F9018951F920F920FB60F9211248F9349
S11308409F9380915C018F5F80935C0190915C0128
S113085080911001981739F410925C01809156012F
S11308608061809356019F918F910F900FBE0F90DE
S11308701F9018951F920F920FB60F9211240F908C
S11308800FBE0F901F9018951F920F920FB60F92E4
S113089011242F933F934F935F936F937F938F9381
S11308A09F93AF93BF93EF93FF9380915601816021
S11308B080935601F8DBFF91EF91BF91AF919F9127
S11308C08F917F916F915F914F913F912F910F90F5
S11308D00FBE0F901F9018955058BB27AA270ED013
S11308E075C166D130F06BD120F031F49F3F11F423
S11308F01EF45BC10EF4E095E7FB51C1E92F77D1FB
S113090080F3BA17620773078407950718F071F428
S11309109EF58FC10EF4E0950B2EBA2FA02D0B017E
S1130920B90190010C01CA01A0011124FF27591B30
S113093099F0593F50F4503E68F11A16F040A22F36
S1130940232F342F4427585FF3CF469537952795A7
S1130950A795F0405395C9F77EF41F16BA0B620BA6
S1130960730B840BBAF09150A1F0FF0FBB1F661FED
S1130970771F881FC2F70EC0BA0F621F731F841F30
S113098048F4879577956795B795F7959E3F08F056
S1130990B3CF9395880F08F09927EE0F9795879515
S11309A00895D9D008F481E008950CD00FC107D17F
S11309B040F0FED030F021F45F3F19F0F0C0511147
S11309C039C1F3C014D198F39923C9F35523B1F372
S11309D0951B550BBB27AA2762177307840738F0AA
S11309E09F5F5F4F220F331F441FAA1FA9F333D009
S11309F00E2E3AF0E0E830D091505040E695001CBD
S1130A00CAF729D0FE2F27D0660F771F881FBB1F78
S1130A10261737074807AB07B0E809F0BB0B802D52
S1130A20BF01FF2793585F4F2AF09E3F510568F09E
S1130A30B6C000C15F3FECF3983EDCF38695779532
S1130A406795B795F7959F5FC9F7880F911D9695A0
S1130A50879597F90895E1E0660F771F881FBB1FFC
S1130A60621773078407BA0720F0621B730B840BA9
S1130A70BA0BEE1F88F7E095089504D06894B1117D
S1130A80D9C00895BCD088F09F5790F0B92F99270A
S1130A90B751A0F0D1F0660F771F881F991F1AF085
S1130AA0BA95C9F712C0B13081F0C3D0B1E008954E
S1130AB0C0C0672F782F8827B85F39F0B93FCCF3CF
S1130AC0869577956795B395D9F73EF4909580957B
S1130AD0709561957F4F8F4F9F4F0895E89409C09B
S1130AE097FB3EF490958095709561957F4F8F4F5D
S1130AF09F4F9923A9F0F92F96E9BB279395F69573
S1130B00879577956795B795F111F8CFFAF4BB0FF0
S1130B1011F460FF1BC06F5F7F4F8F4F9F4F16C054
S1130B20882311F096E911C0772321F09EE8872FDE
S1130B30762F05C0662371F096E8862F70E060E09A
S1130B402AF09A95660F771F881FDAF7880F969513
S1130B50879597F90895990F0008550FAA0BE0E8B7
S1130B60FEEF16161706E807F907C0F0121613066B
S1130B70E407F50798F0621B730B840B950B39F4AB
S1130B800A2661F0232B242B252B21F408950A2611
S1130B9009F4A140A6958FEF811D811D089597F951
S1130BA09F6780E870E060E008959FEF80EC08950F
S1130BB000240A9416161706180609060895002438
S1130BC00A9412161306140605060895092E0394B2
S1130BD0000C11F4882352F0BB0F40F4BF2B11F426
S1130BE060FF04C06F5F7F4F8F4F9F4F089557FD85
S1130BF09058440F551F59F05F3F71F04795880F87
S1130C0097FB991F61F09F3F79F08795089512161D
S1130C1013061406551FF2CF4695F1DF08C01616C9
S1130C2017061806991FF1CF86957105610508947A
S1130C300895E894BB2766277727CB0197F9089591
S1130C408ADF08F48FEF08950BD0C0CFB1DF28F00E
S1130C50B6DF18F0952309F0A2CFA7CF1124EACF6D
S1130C60C6DFA0F3959FD1F3950F50E0551F629F07
S1130C70F001729FBB27F00DB11D639FAA27F00DF1
S1130C80B11DAA1F649F6627B00DA11D661F829F18
S1130C902227B00DA11D621F739FB00DA11D621FFD
S1130CA0839FA00D611D221F749F3327A00D611D1A
S1130CB0231F849F600D211D822F762F6A2F1124FC
S1130CC09F5750408AF0E1F088234AF0EE0FFF1F4F
S1130CD0BB1F661F771F881F91505040A9F79E3F86
S1130CE0510570F05CCFA6CF5F3FECF3983EDCF388
S1130CF0869577956795B795F795E7959F5FC1F7C3
S1130D00FE2B880F911D9695879597F90895F89471
S1050D10FFCF0F
S1130D1254454D50203A00434F4F4C494E47200012
S1130D220A0000A0415461726765742074656D7095
S1130D322020283129546F6C6572616E636520200E
S1130D4220202832294D65617375726520726174A1
S1130D526520283329502D73617665206D6F646593
S1090D62202028342900C2
S9030000FC
