S00B000041584F2E7372656331
S113000033C000004CC000004AC0000048C00000DB
S113001046C0000044C0000042C0000040C00000D0
S11300203EC000004AC300003AC0000057C30000AD
S113003036C0000034C0000032C0000030C00000F0
S11300402EC000002CC000002AC0000028C0000000
S113005026C00000ECC2000022C0000020C0000046
S11300601EC000001CC0000011241FBECFEFD4E04E
S1130070DEBFCDBF11E0A0E0B1E0E6E3FBE002C0EB
S113008005900D92A835B107D9F711E0A8E5B1E0C4
S113009001C01D92A236B107E1F7B5D14AC5B0CF70
S11300A0EBE2F0E080818860808380915C0188606D
S11300B080935C010895EBE2F0E08081877F808388
S11300C080915C01877F80935C010895F894789413
S11300D00895EF92FF920F931F9380E091E060E008
S11300E040E0F4DF60915E0170915F0180916001F6
S11300F090916101D9D3DC01CB0160E048E0E6DFF7
S113010080915C0186958695869580FF2BC087E05B
S113011091E061E040E0DADF60915E0170915F019F
S1130120809160019091610120911301309114013B
S11301304091150150911601E0905801F090590139
S113014000915A0110915B01DED2A801970144D3BA
S1130150ABD39B01AC0184E6829F802D112461E026
S113016048E0B4DF1F910F91FF90EF9008952F9214
S11301703F924F925F926F927F928F929F92AF9233
S1130180BF92CF92DF92EF92FF920F931F93DF9370
S1130190CF93CDB7DEB7C654D0400FB6F894DEBFC8
S11301A00FBECDBFDE011196E7E1F1E080E40190DE
S11301B00D928150E1F760911301709114018091C7
S11301C0150190911601C0905801D0905901E0900A
S11301D05A01F0905B01A0901101B090120180903F
S11301E05C018E010F5B1F4F5FD3F8016083C70171
S11301F0B6015AD3F8016183A282882D869586952B
S113020081708383CC24DD240F2EFBE26F2E7724B0
S1130210F02D280180E090E0382E292ECE010196A1
S113022027969FAF8EAF279705C00F2EF3E0CF2EF2
S1130230DD24F02DF301808186FD95C0F201EC0DE3
S1130240FD1D9080A92CBB24FFEE8F22892D61E037
S113025040E03CDFF301808184FF9394F3018081CB
S113026085FF9A94F301808188230CF078C0F2E032
S1130270CF16D104C9F123E0C216D10434F481E0CD
S1130280C816D10409F055C00BC093E0C916D104B7
S113029009F44FC0E4E0CE16D10409F04AC03DC0D1
S11302A0B501882777FD8095982F2CD37B018C018D
S11302B020E030E040EA51E4D5D3181634F40F2E90
S11302C0FFE0AF2EBB24F02D34C0C801B70120E0FD
S11302D030E040E751E47CD288235CF50F2EF4E152
S11302E0AF2EBB24F02D25C0B501882777FD80955E
S11302F0982F08D37B018C0120E030E040E85FE3D5
S1130300B1D318169CF0C801B70120E030E040E0FA
S113031050E05ED2882334F00CC0F2E0AF16B10492
S11303202CF407C0AA24BB24A39403C0832D922DCC
S11303305C01F301808186FD87CFF3E0CF16D10401
S113034029F0F201EC0DFD1DA0820DC0A114B10431
S113035019F024E0822A78CF8BEF882275CFF2013E
S1130360EC0DFD1D9082C60182959295907F982791
S1130370807F98272696EFAD26978E0F60E040E0A9
S1130380A5DEF201EC0DFD1D808161E040E09EDE02
S1130390F301808184FD03C00894C11CD11CF301C6
S11303A0808185FD03C00894C108D108F3018081D0
S11303B088235CF4F4E0CF16D1041CF0CC24DD24B3
S11303C039CFDD200CF036CF30CF80925C01CA5B90
S11303D0DF4F0FB6F894DEBF0FBECDBFCF91DF91D4
S11303E01F910F91FF90EF90DF90CF90BF90AF904F
S11303F09F908F907F906F905F904F903F902F9041
S1130400089567CE0895CF92DF92EF92FF920F93F3
S11304101F93CF93DF9387E090E09093C500809380
S1130420C400E2ECF0E080818F7D808380818F7E48
S11304308083A1ECB0E08C918B7F8C93808184606D
S113044080838081826080838081877F80838C9198
S113045088608C938C9180618C938C9180688C9350
S11304608C9180648C938C918F7D8C938FE384B971
S1130470E7E2F0E080818E7F8083EAE2F0E08CE0C6
S1130480808380818F70808380EF8BB9ACE7B0E08C
S11304908C9180648C93EAE7F0E0808186608083AD
S11304A08C9180628C938081886080838081806855
S11304B08083EEE7F0E0808181608083E1E8F0E012
S11304C080818061808380911101909112019093C9
S11304D0890080938800808185608083EFE6F0E066
S11304E080818260808385E08093B100E6EBF0E058
S11304F0808180628083E0E7F0E080818160808396
S113050078940F2EFBE2CF2EDD24F02DC9E2D0E04B
S1130510609113017091140180911501909116015D
S1130520209158013091590140915A0150915B0139
S1130530E0905E01F0905F01009160011091610113
S1130540E3D0A801970144D1181614F0A9DD14C012
S113055060915E0170915F018091600190916101F1
S1130560209113013091140140911501509116010D
S11305702FD118160CF09FDD90915D018091100130
S1130580981728F180915C0184FD10C081FF04C09C
S11305908D7F80935C0109C080FF07C08E7F8093AC
S11305A05C01F60180818B7F80832BDF40915C01AD
S11305B0842F869590E0242F30E0822B932B80FFAC
S11305C004C0842F806180935C0110925D01888156
S11305D085FF06C0888184FF03C08881882354F086
S11305E080915C018F7E816080935C01F601808143
S11305F084608083888186FD0FC080915C018F7E3A
S113060080935C0180FD03C0816080935C018091D4
S11306105C01826080935C0180915C0181FF01C078
S1130620A6DD80915C0180FF73CF53DD71CF1F92F3
S11306300F920FB60F9211242F933F934F935F9312
S11306406F937F938F939F93AF93BF93EF93FF9396
S11306506091790070E0882777FD8095982F52D1BA
S113066020E030E44CE955E401D220E030E040E8F9
S11306705BE3FCD120E030E04AEF53E444D020E0D7
S113068030E040E251E4A8D060935E0170935F01D2
S11306908093600190936101FF91EF91BF91AF91BD
S11306A09F918F917F916F915F914F913F912F9186
S11306B00F900FBE0F901F9018951F920F920FB6B8
S11306C00F9211248F9380915D018F5F80935D0160
S11306D08F910F900FBE0F901F9018951F920F923D
S11306E00FB60F9211248F93EF93FF93EAE7F0E094
S11306F0808180648083FF91EF918F910F900FBE72
S11307000F901F9018955058BB27AA270ED070C180
S113071061D130F066D120F031F49F3F11F41EF422
S113072056C10EF4E095E7FB4CC1E92F72D180F37A
S1130730BA17620773078407950718F071F49EF5DA
S11307408AC10EF4E0950B2EBA2FA02D0B01B9012E
S113075090010C01CA01A0011124FF27591B99F033
S1130760593F50F4503E68F11A16F040A22F232F3F
S1130770342F4427585FF3CF469537952795A7958F
S1130780F0405395C9F77EF41F16BA0B620B730B36
S1130790840BBAF09150A1F0FF0FBB1F661F771FA7
S11307A0881FC2F70EC0BA0F621F731F841F48F45C
S11307B0879577956795B795F7959E3F08F0B3CFE2
S11307C09395880F08F09927EE0F979587950895CC
S11307D0D4D008F481E008950CD00AC102D140F0CD
S11307E0F9D030F021F45F3F19F0EBC0511134C15E
S11307F0EEC00FD198F39923C9F35523B1F3951B98
S1130800550BBB27AA2762177307840738F09F5F2D
S11308105F4F220F331F441FAA1FA9F333D00E2E9C
S11308203AF0E0E830D091505040E695001CCAF709
S113083029D0FE2F27D0660F771F881FBB1F2617CE
S113084037074807AB07B0E809F0BB0B802DBF01A1
S1130850FF2793585F4F2AF09E3F510568F0B1C0BF
S1130860FBC05F3FECF3983EDCF386957795679584
S1130870B795F7959F5FC9F7880F911D9695879552
S113088097F90895E1E0660F771F881FBB1F621771
S113089073078407BA0720F0621B730B840BBA0B2F
S11308A0EE1F88F7E0950895BCD088F09F5790F02C
S11308B0B92F9927B751A0F0D1F0660F771F881F81
S11308C0991F1AF0BA95C9F712C0B13081F0C3D09C
S11308D0B1E00895C0C0672F782F8827B85F39F03A
S11308E0B93FCCF3869577956795B395D9F73EF4E0
S11308F090958095709561957F4F8F4F9F4F089588
S1130900E89409C097FB3EF49095809570956195A5
S11309107F4F8F4F9F4F9923A9F0F92F96E9BB275B
S11309209395F695879577956795B795F111F8CFD7
S1130930FAF4BB0F11F460FF1BC06F5F7F4F8F4F42
S11309409F4F16C0882311F096E911C0772321F038
S11309509EE8872F762F05C0662371F096E8862FD0
S113096070E060E02AF09A95660F771F881FDAF727
S1130970880F9695879597F90895990F0008550F54
S1130980AA0BE0E8FEEF16161706E807F907C0F011
S113099012161306E407F50798F0621B730B840B19
S11309A0950B39F40A2661F0232B242B252B21F4F3
S11309B008950A2609F4A140A6958FEF811D811D93
S11309C0089597F99F6780E870E060E008959FEFCD
S11309D080EC089500240A941616170618060906D2
S11309E0089500240A9412161306140605060895A1
S11309F0092E0394000C11F4882352F0BB0F40F429
S1130A00BF2B11F460FF04C06F5F7F4F8F4F9F4F68
S1130A10089557FD9058440F551F59F05F3F71F0EA
S1130A204795880F97FB991F61F09F3F79F0879551
S1130A300895121613061406551FF2CF4695F1DFDA
S1130A4008C0161617061806991FF1CF869571056A
S1130A50610508940895E894BB2766277727CB019E
S1130A6097F908958ADF08F48FEF08950BD0C0CF6B
S1130A70B1DF28F0B6DF18F0952309F0A2CFA7CF95
S1130A801124EACFC6DFA0F3959FD1F3950F50E070
S1130A90551F629FF001729FBB27F00DB11D639F2C
S1130AA0AA27F00DB11DAA1F649F6627B00DA11DD2
S1130AB0661F829F2227B00DA11D621F739FB00D78
S1130AC0A11D621F839FA00D611D221F749F3327E8
S1130AD0A00D611D231F849F600D211D822F762F81
S1130AE06A2F11249F5750408AF0E1F088234AF07E
S1130AF0EE0FFF1FBB1F661F771F881F91505040CA
S1130B00A9F79E3F510570F05CCFA6CF5F3FECF391
S1130B10983EDCF3869577956795B795F795E795B5
S1130B209F5FC1F7FE2B880F911D9695879597F9C6
S1090B300895F894FFCFC4
S1130B3654454D50203A00434F4F4C494E472000F0
S1130B460A00010000A0415461726765742074654F
S1130B566D702020283129546F6C6572616E63654F
S1130B66202020202832294D656173757265207214
S1130B7661746520283329502D73617665206D6F65
S10B0B866465202028342900D5
S9030000FC
