:1000000053C000006CC00000EBC1000068C00000DD
:1000100066C0000064C0000062C0000060C0000054
:100020005EC00000FAC000005AC0000058C00000C6
:1000300056C0000054C0000031C1000050C0000094
:100040004EC000004CC000004AC0000031C100009A
:100050005EC1000045C0000042C0000040C000007A
:100060003EC000003CC00000001F000000001F0058
:10007000001F101010101F00001F181818181F0064
:10008000001F1C1C1C1C1F00001F1E1E1E1E1F000C
:10009000001F1F1F1F1F1F0003070F1F0F07030055
:1000A000181C1E1F1E1C180011241FBECFEFD4E009
:1000B000DEBFCDBF11E0A0E0B1E0EEEBF0E102C0A9
:1000C00005900D92AC35B107D9F711E0ACE5B1E080
:1000D00001C01D92AF36B107E1F7FBD3EEC790CF59
:1000E0001F920F920FB60F921124EF92FF920F936F
:1000F0001F932F933F934F935F936F937F938F93B0
:100100009F93AF93BF93EF93FF936091790070E05B
:10011000660F771F660F771F882777FD8095982FCA
:10012000B5D62CE53FE842E45EE364D76093610115
:100130007093620180936301909364016091160152
:1001400070911701809118019091190120915C0123
:1001500030915D0140915E0150915F01E09061013D
:10016000F090620100916301109164018CD5A801A7
:100170009701EDD51816ACF090911501892F869551
:100180008695869580FD34C0EBE2F0E08081816049
:100190008083808180648083892F886280931501A9
:1001A00027C060916101709162018091630190911B
:1001B000640120911601309117014091180150916E
:1001C0001901C5D51816A4F090911501892F8695AF
:1001D0008695869580FF0CC0EBE2F0E080818E7FF3
:1001E000808380818F7B8083892F877D8093150119
:1001F000FF91EF91BF91AF919F918F917F916F91FF
:100200005F914F913F912F911F910F91FF90EF9030
:100210000F900FBE0F901F9018951F920F920FB660
:100220000F9211248F939F93AF93BF93EF93FF93FC
:100230008091610190916201A0916301B09164018C
:10024000EEE6F1E08AE08083379780818093C600F4
:1002500081E090E09093660180936501E1ECF0E02D
:10026000808180628083809160018F5F80936001D4
:10027000809160018A3039F41092600180911501FB
:10028000806180931501FF91EF91BF91AF919F9194
:100290008F910F900FBE0F901F9018951F920F9285
:1002A0000FB60F9211240F900FBE0F901F9018954C
:1002B0001F920F920FB60F9211248F939F93EF937B
:1002C000FF93E0916501F0916601E959FE4F80814D
:1002D0008093C6008091650190916601019690938C
:1002E0006601809365018091650190916601089790
:1002F00029F4E1ECF0E080818F7D8083FF91EF9124
:100300009F918F910F900FBE0F901F9018951F9285
:100310000F920FB60F9211240F900FBE0F901F90E7
:100320001895EF92FF920F931F9386E060E01FD421
:10033000609161017091620180916301909164010B
:1003400077D5DC01CB0190E068E0F9D3809115010D
:1003500086958695869580FF2FC080E061E007D462
:1003600080E091E068E0EBD388E061E000D4609148
:10037000610170916201809163019091640120910B
:100380001601309117014091180150911901E09028
:100390005C01F0905D0100915E0110915F0172D4EB
:1003A000A8019701D8D444D59B01AC0184E6289FCD
:1003B000C001112468E0C3D31F910F91FF90EF900B
:1003C0000895FF920F931F938C01F62E842F622FB6
:1003D000CED3C8016F2DB3D31F910F91FF90089515
:1003E0001F920F920FB60F9211242F933F934F93AA
:1003F0005F936F937F938F939F93AF93BF93EF938D
:10040000FF938091150181608093150189E091E04F
:1004100065E040E050E020E030E0D3DF31D4FF91F0
:10042000EF91BF91AF919F918F917F916F915F916C
:100430004F913F912F910F900FBE0F901F901895E5
:100440002F923F924F925F926F927F928F929F92E4
:10045000AF92BF92CF92DF92EF92FF920F931F93D2
:10046000DF93CF93CDB7DEB7C954D0400FB6F89421
:10047000DEBF0FBECDBFDE011196EBE1F1E080E4FF
:1004800001900D928150E1F7609116017091170172
:100490008091180190911901C0905C01D0905D018C
:1004A000E0905E01F0905F01B0901A01009115019B
:1004B0000695069510E001701070B5D4FE01EF5B53
:1004C000FF4F71836083C701B601ADD4FE01ED5BC0
:1004D000FF4F71836083FE01EB5BFF4FB08211829F
:1004E000FE01E95BFF4F1183008327D3CC24DD2479
:1004F0000F2EFBE2AF2EBB24F02D0F2EF1E42F2E9A
:100500003324F02D2C0E3D1E80E090E0682E2A96BC
:100510009FAF2A97AEC1F501808183FD57C10F2E91
:10052000FFEE7F2EF02D792270921501C601880F03
:10053000991FF101E80FF91F408051804F0140C120
:10054000F501808185FD8AC0FFEE7F22F401808164
:1005500091819C012F5F3F4FF2E0CF16D104C1F192
:1005600083E0C816D10434F4E1E0CE16D10409F0DA
:100570006CC00BC0F3E0CF16D10409F449C084E08D
:10058000C816D10409F061C04DC0B901882777FDB4
:100590008095982F7BD47B018C0120E030E040E7F0
:1005A00051E4D5D388231CF48FE090E054C0C801F7
:1005B000B70120E030E040EA51E418D518161CF4E9
:1005C00084E190E048C0C801B7012DD4CB0143C0FD
:1005D000B901882777FD8095982F58D47B018C012D
:1005E00020E030E040E050E0B2D3882384F1C8013D
:1005F000B70120E030E040E85FE3F8D418161CF4BF
:1006000081E090E028C0C801B7010DD4CB0123C020
:1006100033231CF48FEF93E01EC0E4E020303E074C
:10062000A4F015C0C901522F492F1216130624F445
:1006300081E090E0582F492F852F942F99235CF467
:10064000862D2A969FAD2A9706C0C90104C0862D23
:100650002A969FAD2A97F40191838083F5018081CA
:1006600084FD8AC0FFEE7F22F401808191819C018C
:1006700021503040F2E0CF16D104C1F183E0C8161A
:10068000D10434F4E1E0CE16D10409F06CC00BC003
:10069000F3E0CF16D10409F449C084E0C816D104B0
:1006A00009F061C04DC0B901882777FD8095982F6A
:1006B000EDD37B018C0120E030E040E751E447D3EB
:1006C00088231CF48FE090E054C0C801B70120E0FB
:1006D00030E040EA51E48AD418161CF484E190E03A
:1006E00048C0C801B7019FD3CB0143C0B9018827D7
:1006F00077FD8095982FCAD37B018C0120E030E0F4
:1007000040E050E024D3882384F1C801B70120E001
:1007100030E040E85FE36AD418161CF481E090E012
:1007200028C0C801B7017FD3CB0123C033231CF4F9
:100730008FEF93E01EC0E4E020303E07A4F015C028
:10074000C901522F492F1216130624F481E090E0BC
:10075000582F492F852F942F99235CF4862D2A96A4
:100760009FAD2A9706C0C90104C0862D2A969FAD69
:100770002A97F40191838083F501808183FD20C055
:1007800070921501F3E0CF16D10449F0C601880F2D
:10079000991FF101E80FF91F4082118217C041141F
:1007A000510449F0C201880F991F880F991F8729AA
:1007B000809315010BC0872D8B7F8093150106C098
:1007C000F501808182FFBCCE7092150180E060E06F
:1007D000CED1C60182959295907F9827807F9827E9
:1007E00021E030E02C0F3D1F820F931F60E1A7D165
:1007F00080E061E0BCD1C601880F991FF101E80FCC
:10080000F91F8081918161E09AD1F501808185FD98
:1008100016C0809115018F7E809315010894C11C2C
:10082000D11CDD2034F40F2EF3E0CF2EDD24F02D8B
:1008300006C0F4E0CF16D10414F0CC24DD24F50179
:10084000808184FD16C0809115018F7E80931501F3
:100850000894C108D108DD2034F40F2EF3E0CF2E28
:10086000DD24F02D06C0F4E0CF16D10414F0CC2422
:10087000DD249091150194FD4ECEF501808182FF1B
:100880004ACE892F8D7E8093150157D189E091E062
:1008900065E040E050E020E030E093DD42DDC75B02
:1008A000DF4F0FB6F894DEBF0FBECDBFCF91DF9103
:1008B0001F910F91FF90EF90DF90CF90BF90AF907E
:1008C0009F908F907F906F905F904F903F902F9070
:1008D00008950F931F93CF93DF9387E090E0909359
:1008E000C5008093C400E2ECF0E080818F7D8083BE
:1008F00080818F7E8083A1ECB0E08C918B7F8C9384
:100900008081846080838081826080838081877F12
:1009100080838C9188608C938C918F7E8C938C914A
:100920008F778C938C9180648C938C918F7D8C933A
:10093000E7E2F0E080818E7F8083EAE2F0E081EC04
:1009400080838081837C80838CE38BB9ECE7F0E04B
:10095000808180648083ABE7B0E08C9183608C936E
:100960008081806280830AE710E0F80180818062E4
:100970008083808188608083808180688083EEE7C7
:10098000F0E0808181608083E4E4F0E08081826037
:10099000808380911A0187BDE5E4F0E08081846066
:1009A0008083EEE6F0E080818260808385E0809342
:1009B000B100E6EBF0E0808180628083E0E7F0E068
:1009C00080818160808302D1E4E6F0E080818068EC
:1009D0008083808188608083808184608083E0E57B
:1009E000F0E0808180688083F8018081806480836A
:1009F0007894C9E2D0E009E011E0888184FF06C064
:100A0000888185FF03C0888182FD0EC08091150119
:100A10008F7E816080931501C80165E040E050E061
:100A200020E030E0CEDC2CD1888183FD18C080919D
:100A300015018F7E8093150180FD0BC0816080932E
:100A40001501C80165E040E050E020E030E0B9DC8D
:100A500017D180911501826080931501F1DC80919E
:100A6000150184FF06C080FFC8CF8E7F80931501DB
:100A700005D18091150180FFC0CF53DCBECFCF934D
:100A8000DF93982F92959F70A5E2B0E09C93E8E2E7
:100A9000F0E09081926090839081986090832AEF3B
:100AA00030E0E9012197F1F79081977F9083908161
:100AB0009D7F9083E9012197F1F78F708C9380815E
:100AC00082608083808188608083C9010197F1F70B
:100AD0008081877F808380818D7F8083C90101979A
:100AE000F1F7DF91CF910895CF93DF93982F9295EF
:100AF0009F70A5E2B0E09C93E8E2F0E090819860FE
:100B000090832AEF30E0E9012197F1F79081977FF8
:100B10009083E9012197F1F78F708C938081886031
:100B20008083C9010197F1F78081877F8083C901A4
:100B30000197F1F7DF91CF91089581E0D5CF0F9321
:100B40001F93CF93DF939C01062F009759F06623E4
:100B500049F0182F282FE901899191DF9E01211B6F
:100B60002017D0F3DF91CF911F910F91089562303C
:100B700031F0633031F0613029F4805C03C08C5E69
:100B800001C08C5A8068B0CFEF92FF920F931F93F1
:100B9000CF93DF937C01660F660F660F062F00640C
:100BA000C0E0D0E0F701EC0FFD1F1491802F8C0FF7
:100BB0009BDF812F64DF2196C830D10599F7DF9143
:100BC000CF911F910F91FF90EF9008951F93CF93B6
:100BD000DF9386EA9EE00197F1F745E250E0FA01E3
:100BE0001082A8E2B0E01C92E4E2F0E080818F6025
:100BF0008083E7E2F0E080818E60808393E0FA01F9
:100C000090838C9188608C932AEF30E0F9013197C2
:100C1000F1F78C91877F8C93F9013197F1F7FA0105
:100C200090838C9188608C93C9010197F1F78C9126
:100C3000877F8C93C9010197F1F782E080838C91C3
:100C400088608C93C9010197F1F78C91877F8C9311
:100C5000C9010197F1F788E247DF8CE045DFC8E67C
:100C6000D0E060E0162F1F5FCE018EDF2896612F47
:100C70001830C1F7DF91CF911F91089588E034CFEC
:100C80008CE032CF5058BB27AA270ED075C166D151
:100C900030F06BD120F031F49F3F11F41EF45BC1B2
:100CA0000EF4E095E7FB51C1E92F77D180F3BA1735
:100CB000620773078407950718F071F49EF58FC1DA
:100CC0000EF4E0950B2EBA2FA02D0B01B901900167
:100CD0000C01CA01A0011124FF27591B99F0593FAB
:100CE00050F4503E68F11A16F040A22F232F342FF3
:100CF0004427585FF3CF469537952795A795F04041
:100D00005395C9F77EF41F16BA0B620B730B840B55
:100D1000BAF09150A1F0FF0FBB1F661F771F881F0D
:100D2000C2F70EC0BA0F621F731F841F48F4879565
:100D300077956795B795F7959E3F08F0B3CF939554
:100D4000880F08F09927EE0F979587950895D9D0C9
:100D500008F481E008950CD00FC107D140F0FED017
:100D600030F021F45F3F19F0F0C0511139C1F3C0E8
:100D700014D198F39923C9F35523B1F3951B550B5F
:100D8000BB27AA2762177307840738F09F5F5F4F5E
:100D9000220F331F441FAA1FA9F333D00E2E3AF09F
:100DA000E0E830D091505040E695001CCAF729D0B9
:100DB000FE2F27D0660F771F881FBB1F2617370708
:100DC0004807AB07B0E809F0BB0B802DBF01FF2738
:100DD00093585F4F2AF09E3F510568F0B6C000C19E
:100DE0005F3FECF3983EDCF3869577956795B79572
:100DF000F7959F5FC9F7880F911D9695879597F98D
:100E00000895E1E0660F771F881FBB1F6217730705
:100E10008407BA0720F0621B730B840BBA0BEE1F1A
:100E200088F7E095089504D06894B111D9C0089569
:100E3000BCD088F09F5790F0B92F9927B751A0F0F8
:100E4000D1F0660F771F881F991F1AF0BA95C9F75E
:100E500012C0B13081F0C3D0B1E00895C0C0672F97
:100E6000782F8827B85F39F0B93FCCF3869577950E
:100E70006795B395D9F73EF49095809570956195F7
:100E80007F4F8F4F9F4F0895E89409C097FB3EF422
:100E900090958095709561957F4F8F4F9F4F9923C7
:100EA000A9F0F92F96E9BB279395F6958795779545
:100EB0006795B795F111F8CFFAF4BB0F11F460FF05
:100EC0001BC06F5F7F4F8F4F9F4F16C0882311F05D
:100ED00096E911C0772321F09EE8872F762F05C071
:100EE000662371F096E8862F70E060E02AF09A950C
:100EF000660F771F881FDAF7880F9695879597F901
:100F00000895990F0008550FAA0BE0E8FEEF16169A
:100F10001706E807F907C0F012161306E407F507ED
:100F200098F0621B730B840B950B39F40A2661F061
:100F3000232B242B252B21F408950A2609F4A14004
:100F4000A6958FEF811D811D089597F99F6780E811
:100F500070E060E008959FEF80EC089500240A940B
:100F60001616170618060906089500240A94121684
:100F70001306140605060895092E0394000C11F4B7
:100F8000882352F0BB0F40F4BF2B11F460FF04C064
:100F90006F5F7F4F8F4F9F4F089557FD9058440FBD
:100FA000551F59F05F3F71F04795880F97FB991FC8
:100FB00061F09F3F79F08795089512161306140685
:100FC000551FF2CF4695F1DF08C016161706180612
:100FD000991FF1CF86957105610508940895E894ED
:100FE000BB2766277727CB0197F908958ADF08F496
:100FF0008FEF08950BD0C0CFB1DF28F0B6DF18F027
:10100000952309F0A2CFA7CF1124EACFC6DFA0F322
:10101000959FD1F3950F50E0551F629FF001729F8D
:10102000BB27F00DB11D639FAA27F00DB11DAA1FAC
:10103000649F6627B00DA11D661F829F2227B00DF9
:10104000A11D621F739FB00DA11D621F839FA00D84
:10105000611D221F749F3327A00D611D231F849FD4
:10106000600D211D822F762F6A2F11249F5750402B
:101070008AF0E1F088234AF0EE0FFF1FBB1F661FC6
:10108000771F881F91505040A9F79E3F510570F07F
:101090005CCFA6CF5F3FECF3983EDCF38695779567
:1010A0006795B795F795E7959F5FC1F7FE2B880F7A
:0E10B000911D9695879597F90895F894FFCFB6
:1010BE00434F4F4C494E47200054454D503A002562
:1010CE00342E386600040000A041805461726765BA
:1010DE00742074656D702020283129546F6C6572F0
:1010EE00616E6365202020202832294D656173755D
:1010FE007265207261746520283329502D736176D4
:0C110E0065206D6F6465202028342900E6
:00000001FF
