:1000000053C000006DC000009CC1000069C000002A
:1000100067C0000065C0000063C0000061C0000050
:100020005FC00000FBC000005BC0000059C00000C2
:1000300057C0000055C0000032C1000051C0000090
:100040004FC000004DC000004BC0000032C1000096
:100050005FC1000046C0000043C0000041C0000076
:100060003FC000003DC00000001F000000001F0056
:10007000001F101010101F00001F181818181F0064
:10008000001F1C1C1C1C1F00001F1E1E1E1E1F000C
:10009000001F1F1F1F1F1F0003070F1F0F07030055
:1000A000181C1E1F1E1C180011241FBECFEFD4E009
:1000B000DEBFCDBF11E0A0E0B1E0E8EBF6E102C0A9
:1000C00005900D92A236B107D9F711E0A2E6B1E092
:1000D00001C01D92A537B107E1F732D40C945A0B39
:1000E0008FCF1F920F920FB60F921124EF92FF92B3
:1000F0000F931F932F933F934F935F936F937F9330
:100100008F939F93AF93BF93EF93FF936091790089
:1001100070E0660F771F660F771F882777FD809541
:10012000982FEBD62CE53FE842E45EE39AD7609344
:100130006701709368018093690190936A016091EF
:100140001C0170911D0180911E0190911F01209151
:100150006201309163014091640150916501E0902A
:100160006701F09068010091690110916A01C2D5A0
:10017000A801970123D61816ACF090911B01892F86
:1001800086958695869580FD34C0EBE2F0E080810F
:1001900081608083808180648083892F88628093DE
:1001A0001B0127C06091670170916801809169010E
:1001B00090916A0120911C0130911D0140911E0116
:1001C00050911F01FBD51816A4F090911B01892FA7
:1001D00086958695869580FF0CC0EBE2F0E08081E5
:1001E0008E7F808380818F7B8083892F877D809322
:1001F0001B01FF91EF91BF91AF919F918F917F91E3
:100200006F915F914F913F912F911F910F91FF90AF
:10021000EF900F900FBE0F901F9018951F920F92A6
:100220000FB60F9211248F939F93AF93BF93EF93C9
:10023000FF938091670190916801A0916901B0914D
:100240006A01E4E7F1E08AE0808337978081809358
:10025000C60081E090E090936C0180936B01E1EC2B
:10026000F0E0808180628083809166018F5F80935F
:100270006601809166018A3039F41092660180919E
:100280001B01806180931B01FF91EF91BF91AF91A2
:100290009F918F910F900FBE0F901F9018951F92F6
:1002A0000F920FB60F9211240F900FBE0F901F9058
:1002B00018951F920F920FB60F9211248F939F9350
:1002C000EF93FF93E0916B01F0916C01E359FE4FC6
:1002D00080818093C60080916B0190916C010196A2
:1002E00090936C0180936B0180916B0190916C01F4
:1002F000089729F4E1ECF0E080818F7D8083FF9105
:10030000EF919F918F910F900FBE0F901F901895B6
:100310001F920F920FB60F9211240F900FBE0F90E5
:100320001F901895FF920F931F938C01F62E842F28
:10033000622F54D4C8016F2D39D41F910F91FF90B3
:1003400008951F920F920FB60F9211242F933F938F
:100350004F935F936F937F938F939F93AF93BF93CD
:10036000EF93FF9380911B01816080931B0180E0DC
:1003700091E065E040E050E020E030E0D3DFB7D42A
:10038000FF91EF91BF91AF919F918F917F916F916D
:100390005F914F913F912F910F900FBE0F901F9043
:1003A00018952DB73EB7285030400FB6F8943EBF91
:1003B0000FBE2DBFEDB7FEB73196918380838CE0E1
:1003C00091E0938382834483558366837783ACD69D
:1003D0008DB79EB708960FB6F8949EBF0FBE8DBF1F
:1003E0000895EF92FF920F931F93DF93CF9300D066
:1003F00000D00F92CDB7DEB786E060E0EFD340913A
:100400006701509168016091690170916A018E01E4
:100410000F5F1F4FC801C5DFC80168E0C7D38091D7
:100420001B0186958695869580FF35C080E061E04A
:10043000D5D382E191E068E0B9D388E061E0CED322
:1004400060916701709168018091690190916A01E2
:1004500020911C0130911D0140911E0150911F01FE
:10046000E0906201F09063010091640110916501D8
:1004700040D4A8019701A6D420E030E048EC52E433
:10048000F0D5AB01BC018E010F5F1F4FC80189DFA2
:10049000C80168E08BD30F900F900F900F900F90D2
:1004A000CF91DF911F910F91FF90EF9008952F92C0
:1004B0003F924F925F926F927F928F929F92AF92F4
:1004C000BF92CF92DF92EF92FF920F931F93DF9331
:1004D000CF93CDB7DEB7C954D0400FB6F894DEBF86
:1004E0000FBECDBFDE011196E1E2F1E080E40190A4
:1004F0000D928150E1F760911C0170911D01809176
:100500001E0190911F01C0906201D0906301E090A4
:100510006401F0906501B090200100911B010695E7
:10052000069510E001701070B5D4FE01EF5BFF4F2F
:1005300071836083C701B601ADD4FE01ED5BFF4F4F
:1005400071836083FE01EB5BFF4FB0821182FE017D
:10055000E95BFF4F1183008327D3CC24DD240F2ECA
:10056000FBE2AF2EBB24F02D0F2EF1E42F2E33240F
:10057000F02D2C0E3D1E80E090E0682E2A969FAF55
:100580002A97AEC1F501808183FD57C10F2EFFEE82
:100590007F2EF02D792270921B01C601880F991FC2
:1005A000F101E80FF91F408051804F0140C1F50172
:1005B000808185FD8AC0FFEE7F22F40180819181D8
:1005C0009C012F5F3F4FF2E0CF16D104C1F183E0D1
:1005D000C816D10434F4E1E0CE16D10409F06CC0A1
:1005E0000BC0F3E0CF16D10409F449C084E0C8166B
:1005F000D10409F061C04DC0B901882777FD80950D
:10060000982F7BD47B018C0120E030E040E751E45F
:10061000D5D388231CF48FE090E054C0C801B70103
:1006200020E030E040EA51E418D518161CF484E1CB
:1006300090E048C0C801B7012DD4CB0143C0B90137
:10064000882777FD8095982F58D47B018C0120E076
:1006500030E040E050E0B2D3882384F1C801B70114
:1006600020E030E040E85FE3F8D418161CF481E0A5
:1006700090E028C0C801B7010DD4CB0123C03323BB
:100680001CF48FEF93E01EC0E4E020303E07A4F09E
:1006900015C0C901522F492F1216130624F481E008
:1006A00090E0582F492F852F942F99235CF4862DA5
:1006B0002A969FAD2A9706C0C90104C0862D2A96A6
:1006C0009FAD2A97F40191838083F501808184FD99
:1006D0008AC0FFEE7F22F401808191819C0121502C
:1006E0003040F2E0CF16D104C1F183E0C816D10446
:1006F00034F4E1E0CE16D10409F06CC00BC0F3E095
:10070000CF16D10409F449C084E0C816D10409F019
:1007100061C04DC0B901882777FD8095982FEDD332
:100720007B018C0120E030E040E751E447D388238F
:100730001CF48FE090E054C0C801B70120E030E025
:1007400040EA51E48AD418161CF484E190E048C0D1
:10075000C801B7019FD3CB0143C0B901882777FDFA
:100760008095982FCAD37B018C0120E030E040E0D7
:1007700050E024D3882384F1C801B70120E030E0A1
:1007800040E85FE36AD418161CF481E090E028C0CA
:10079000C801B7017FD3CB0123C033231CF48FEFF3
:1007A00093E01EC0E4E020303E07A4F015C0C9016C
:1007B000522F492F1216130624F481E090E0582F8F
:1007C000492F852F942F99235CF4862D2A969FAD6F
:1007D0002A9706C0C90104C0862D2A969FAD2A9784
:1007E000F40191838083F501808183FD20C07092A4
:1007F0001B01F3E0CF16D10449F0C601880F991F01
:10080000F101E80FF91F4082118217C04114510411
:1008100049F0C201880F991F880F991F872980937B
:100820001B010BC0872D8B7F80931B0106C0F50138
:10083000808182FFBCCE70921B0180E060E0CED14F
:10084000C60182959295907F9827807F982721E016
:1008500030E02C0F3D1F820F931F60E1A7D180E095
:1008600061E0BCD1C601880F991FF101E80FF91FA3
:100870008081918161E09AD1F501808185FD16C06A
:1008800080911B018F7E80931B010894C11CD11C99
:10089000DD2034F40F2EF3E0CF2EDD24F02D06C042
:1008A000F4E0CF16D10414F0CC24DD24F5018081CE
:1008B00084FD16C080911B018F7E80931B010894DC
:1008C000C108D108DD2034F40F2EF3E0CF2EDD2453
:1008D000F02D06C0F4E0CF16D10414F0CC24DD24B2
:1008E00090911B0194FD4ECEF501808182FF4ACE8E
:1008F000892F8D7E80931B0157D180E091E065E0C8
:1009000040E050E020E030E00DDD6BDDC75BDF4F05
:100910000FB6F894DEBF0FBECDBFCF91DF911F9110
:100920000F91FF90EF90DF90CF90BF90AF909F908E
:100930008F907F906F905F904F903F902F90089591
:100940000F931F93CF93DF9387E090E09093C500C0
:100950008093C400E2ECF0E080818F7D8083808111
:100960008F7E8083A1ECB0E08C918B7F8C93808113
:10097000846080838081826080838081877F8083A0
:100980008C9188608C938C918F7E8C938C918F77D7
:100990008C938C9180648C938C918F7D8C93E7E207
:1009A000F0E080818E7F8083EAE2F0E081EC80835A
:1009B0008081837C80838CE38BB9ECE7F0E08081DD
:1009C00080648083ABE7B0E08C9183608C938081FE
:1009D000806280830AE710E0F80180818062808372
:1009E000808188608083808180688083EEE7F0E08A
:1009F000808181608083E4E4F0E080818260808394
:100A00008091200187BDE5E4F0E0808184608083EF
:100A1000EEE6F0E080818260808385E08093B10023
:100A2000E6EBF0E0808180628083E0E7F0E08081A7
:100A30008160808302D1E4E6F0E080818068808379
:100A4000808188608083808184608083E0E5F0E03D
:100A5000808180688083F8018081806480837894BD
:100A6000C9E2D0E000E011E0888184FF06C08881FF
:100A700085FF03C0888182FD0EC080911B018F7E9F
:100A8000816080931B01C80165E040E050E020E0F8
:100A900030E048DC2CD1888183FD18C080911B0197
:100AA0008F7E80931B0180FD0BC0816080931B01B2
:100AB000C80165E040E050E020E030E033DC17D1D1
:100AC00080911B01826080931B01F1DC80911B01EE
:100AD00084FF06C080FFC8CF8E7F80931B0105D1A5
:100AE00080911B0180FFC0CF7CDCBECFCF93DF9312
:100AF000982F92959F70A5E2B0E09C93E8E2F0E019
:100B00009081926090839081986090832AEF30E08A
:100B1000E9012197F1F79081977F908390819D7FE4
:100B20009083E9012197F1F78F708C938081826027
:100B30008083808188608083C9010197F1F780817B
:100B4000877F808380818D7F8083C9010197F1F742
:100B5000DF91CF910895CF93DF93982F92959F7057
:100B6000A5E2B0E09C93E8E2F0E090819860908389
:100B70002AEF30E0E9012197F1F79081977F908388
:100B8000E9012197F1F78F708C93808188608083D1
:100B9000C9010197F1F78081877F8083C90101979F
:100BA000F1F7DF91CF91089581E0D5CF0F931F9397
:100BB000CF93DF939C01062F009759F0662349F0ED
:100BC000182F282FE901899191DF9E01211B201701
:100BD000D0F3DF91CF911F910F910895623031F0E2
:100BE000633031F0613029F4805C03C08C5E01C059
:100BF0008C5A8068B0CFEF92FF920F931F93CF93E0
:100C0000DF937C01660F660F660F062F0064C0E05D
:100C1000D0E0F701EC0FFD1F1491802F8C0F9BDFAC
:100C2000812F64DF2196C830D10599F7DF91CF91EC
:100C30001F910F91FF90EF9008951F93CF93DF9333
:100C400086EA9EE00197F1F745E250E0FA01108252
:100C5000A8E2B0E01C92E4E2F0E080818F60808343
:100C6000E7E2F0E080818E60808393E0FA01908378
:100C70008C9188608C932AEF30E0F9013197F1F77D
:100C80008C91877F8C93F9013197F1F7FA0190836A
:100C90008C9188608C93C9010197F1F78C91877FC3
:100CA0008C93C9010197F1F782E080838C91886071
:100CB0008C93C9010197F1F78C91877F8C93C901BF
:100CC0000197F1F788E247DF8CE045DFC8E6D0E026
:100CD00060E0162F1F5FCE018EDF2896612F18303F
:100CE000C1F7DF91CF911F91089588E034CF8CE058
:100CF00032CF5058BB27AA270ED075C166D130F02D
:100D00006BD120F031F49F3F11F41EF45BC10EF45F
:100D1000E095E7FB51C1E92F77D180F3BA1762075D
:100D200073078407950718F071F49EF58FC10EF4D0
:100D3000E0950B2EBA2FA02D0B01B90190010C01EB
:100D4000CA01A0011124FF27591B99F0593F50F403
:100D5000503E68F11A16F040A22F232F342F44275B
:100D6000585FF3CF469537952795A795F040539553
:100D7000C9F77EF41F16BA0B620B730B840BBAF023
:100D80009150A1F0FF0FBB1F661F771F881FC2F78E
:100D90000EC0BA0F621F731F841F48F487957795A2
:100DA0006795B795F7959E3F08F0B3CF9395880F59
:100DB00008F09927EE0F979587950895D9D008F4F4
:100DC00081E008950CD00FC107D140F0FED030F083
:100DD00021F45F3F19F0F0C0511139C1F3C014D1B3
:100DE00098F39923C9F35523B1F3951B550BBB27F2
:100DF000AA2762177307840738F09F5F5F4F220F9F
:100E0000331F441FAA1FA9F333D00E2E3AF0E0E897
:100E100030D091505040E695001CCAF729D0FE2FE3
:100E200027D0660F771F881FBB1F26173707480775
:100E3000AB07B0E809F0BB0B802DBF01FF2793582B
:100E40005F4F2AF09E3F510568F0B6C000C15F3F7A
:100E5000ECF3983EDCF3869577956795B795F79513
:100E60009F5FC9F7880F911D9695879597F908950B
:100E7000E1E0660F771F881FBB1F621773078407A7
:100E8000BA0720F0621B730B840BBA0BEE1F88F7B6
:100E9000E095089504D06894B111D9C00895BCD0EC
:100EA00088F09F5790F0B92F9927B751A0F0D1F053
:100EB000660F771F881F991F1AF0BA95C9F712C0DD
:100EC000B13081F0C3D0B1E00895C0C0672F782F52
:100ED0008827B85F39F0B93FCCF386957795679549
:100EE000B395D9F73EF490958095709561957F4FB5
:100EF0008F4F9F4F0895E89409C097FB3EF490955B
:100F00008095709561957F4F8F4F9F4F9923A9F0E2
:100F1000F92F96E9BB279395F69587957795679571
:100F2000B795F111F8CFFAF4BB0F11F460FF1BC0B5
:100F30006F5F7F4F8F4F9F4F16C0882311F096E948
:100F400011C0772321F09EE8872F762F05C06623F6
:100F500071F096E8862F70E060E02AF09A95660FAF
:100F6000771F881FDAF7880F9695879597F9089568
:100F7000990F0008550FAA0BE0E8FEEF16161706AA
:100F8000E807F907C0F012161306E407F50798F012
:100F9000621B730B840B950B39F40A2661F0232B2B
:100FA000242B252B21F408950A2609F4A140A695A7
:100FB0008FEF811D811D089597F99F6780E870E08C
:100FC00060E008959FEF80EC089500240A941616BF
:100FD000170618060906089500240A941216130627
:100FE000140605060895092E0394000C11F48823B5
:100FF00052F0BB0F40F4BF2B11F460FF04C06F5FD1
:101000007F4F8F4F9F4F089557FD9058440F551FA6
:1010100059F05F3F71F04795880F97FB991F61F07A
:101020009F3F79F087950895121613061406551FF1
:10103000F2CF4695F1DF08C0161617061806991F5D
:10104000F1CF86957105610508940895E894BB2752
:1010500066277727CB0197F908958ADF08F48FEF89
:1010600008950BD0C0CFB1DF28F0B6DF18F095237C
:1010700009F0A2CFA7CF1124EACFC6DFA0F3959F36
:10108000D1F3950F50E0551F629FF001729FBB276F
:10109000F00DB11D639FAA27F00DB11DAA1F649F1B
:1010A0006627B00DA11D661F829F2227B00DA11DCE
:1010B000621F739FB00DA11D621F839FA00D611D54
:1010C000221F749F3327A00D611D231F849F600D75
:1010D000211D822F762F6A2F11249F5750408AF0AE
:1010E000E1F088234AF0EE0FFF1FBB1F661F771F3A
:1010F000881F91505040A9F79E3F510570F05CCF7A
:10110000A6CF5F3FECF3983EDCF386957795679525
:10111000B795F795E7959F5FC1F7FE2B880F911D57
:101120009695879597F90895AEE0B0E0E9E9F8E083
:1011300098C20D891E8986E08C831A8309838FEFFC
:101140009FE79E838D839E01275E3F4FCE010196D0
:101150006F89788DA90109D02F813885020F131F5F
:10116000F80110822E96E4E098C2ABE0B0E0EAEB22
:10117000F8E069C23C012B015A01FC01178216827A
:10118000838181FD03C06FEF7FEFB9C19AE0892EA3
:101190001E010894211C311CF3012381F20123FD5F
:1011A000859123FF81912F01882309F4A5C1853200
:1011B00039F423FD859123FF81912F01853221F49C
:1011C00090E0B301B6D1E8CF982FFF24EE24992404
:1011D000FFE1FF15D0F09B3269F09C3228F4903289
:1011E00059F0933291F40EC09D3249F0903369F476
:1011F00041E024C052E0F52A84E0F82A28C098E0B3
:10120000F92A25C0E0E1FE2A22C0F7FC29C0892F77
:1012100080538A3070F4F6FE05C0989C902C1124FF
:10122000980E15C0E89CE02C1124E80EF0E2FF2A8D
:101230000EC09E3229F4F6FC5FC140E4F42A07C0D8
:101240009C3619F450E8F52A02C0983649F4F201A8
:1012500023FD959123FF91912F01992309F0B8CF98
:10126000892F8554833018F08052833038F444E05D
:1012700050E0A40EB51E5FE359830FC0933631F0E2
:10128000933779F0933509F052C01FC0F501808182
:10129000898342E050E0A40EB51E610101E010E038
:1012A00011C0F501C080D180F6FC03C06FEF7FEF65
:1012B00002C0692D70E042E050E0A40EB51EC601E8
:1012C0002DD18C015FE7F52213C0F501C080D180DC
:1012D000F6FC03C06FEF7FEF02C0692D70E042E0C3
:1012E00050E0A40EB51EC6010ED18C0150E8F52ABF
:1012F000F3FE06C018C080E290E0B3011AD1EA9470
:101300008E2D90E008171907B0F30DC0F601F7FC19
:101310008591F7FE81916F0190E0B3010AD1E11050
:10132000EA94015010400115110581F7E2C094368E
:1013300011F0993661F5F7FE08C0F5012081318181
:101340004281538184E090E00AC0F501808191815F
:101350009C01442737FD4095542F82E090E0A80E71
:10136000B91E9FE6F92257FF09C050954095309568
:1013700021953F4F4F4F5F4FE0E8FE2ACA01B90168
:10138000A1012AE030E001D1D82ED2183FC0953714
:1013900029F41F2D1F7E2AE030E01DC01F2D197F6C
:1013A0009F3661F0903720F4983509F0A5C00FC042
:1013B000903739F0983709F09FC004C028E030E03A
:1013C0000AC0106114FD146020E130E004C014FD77
:1013D000166020E132E017FF08C0F50160817181DD
:1013E0008281938144E050E008C0F50180819181C1
:1013F000BC0180E090E042E050E0A40EB51EA101E7
:10140000C4D0D82ED2188FE7F82EF122F6FE0BC0EA
:101410005EEFF522D91438F4F4FE07C0F2FC05C0E3
:101420008FEEF82202C01D2D01C0192DF4FE0DC053
:10143000FE01ED0DF11D8081803319F499EEF92242
:1014400008C01F5FF2FE05C003C08F2D867809F02B
:101450001F5F0F2DF3FC13C0F0FE0EC01E1510F021
:101460009D2C0AC09D2C9E0C911A1E2D05C080E259
:1014700090E0B3015ED01F5F1E15C8F304C01E15B7
:1014800010F4E11A01C0EE2404FF0EC080E390E0E6
:10149000B3014FD002FF1BC001FD03C088E790E0FD
:1014A0000EC088E590E00BC0802F867881F001FFA8
:1014B00002C08BE201C080E2F7FC8DE290E0B30154
:1014C00038D005C080E390E0B30133D09A94D914AA
:1014D000C8F3DA94F101ED0DF11D808190E0B301C4
:1014E00028D0DD20B1F705C080E290E0B30121D023
:1014F000EA94EE20C9F750CEF30166817781CB01E3
:101500002B96E2E1BCC0FC010590615070400110D7
:10151000D8F7809590958E0F9F1F0895FC0161501C
:10152000704001900110D8F7809590958E0F9F1F05
:1015300008950F931F93CF93DF938C01EB018B8161
:1015400081FF1BC082FF0DC02E813F818C819D8158
:101550002817390764F4E881F9810193F983E88356
:1015600006C0E885F985802F0995892B31F48E8195
:101570009F8101969F838E8302C00FEF1FEFC801EA
:10158000DF91CF911F910F910895FA01AA2728307A
:1015900051F1203181F1E8946F936E7F6E5F7F4F40
:1015A0008F4F9F4FAF4FB1E03ED0B4E03CD0670FBC
:1015B000781F891F9A1FA11D680F791F8A1F911D0F
:1015C000A11D6A0F711D811D911DA11D20D009F45F
:1015D00068943F912AE0269F11243019305D3193A1
:1015E000DEF6CF010895462F4770405D4193B3E08A
:1015F0000FD0C9F7F6CF462F4F70405D4A3318F031
:10160000495D31FD4052419302D0A9F7EACFB4E0E1
:10161000A6959795879577956795BA95C9F7009799
:101620006105710508959B01AC010A2E069457953A
:10163000479537952795BA95C9F7620F731F841F91
:10164000951FA01D08952F923F924F925F926F9227
:101650007F928F929F92AF92BF92CF92DF92EF9242
:10166000FF920F931F93CF93DF93CDB7DEB7CA1BC3
:10167000DB0B0FB6F894DEBF0FBECDBF09942A88EE
:10168000398848885F846E847D848C849B84AA8496
:10169000B984C884DF80EE80FD800C811B81AA8123
:1016A000B981CE0FD11D0FB6F894DEBF0FBECDBFEE
:0816B000ED010895F894FFCF4D
:1016B80054454D503A0025342E38660025322E32D6
:1016C8006600434F4F4C494E472000040000A0419C
:1016D800805461726765742074656D7020202831AC
:1016E80029546F6C6572616E636520202020283252
:1016F800294D6561737572652072617465202833A0
:1017080029502D73617665206D6F6465202028341B
:021718002900A6
:00000001FF
