:1000000053C000006DC000008EC1000069C0000038
:1000100067C0000065C0000063C0000061C0000050
:100020005FC00000FCC000005BC0000059C00000C1
:1000300057C0000055C0000033C1000051C000008F
:100040004FC000004DC000004BC0000033C1000095
:1000500060C1000046C0000043C0000041C0000075
:100060003FC000003DC00000001F000000001F0056
:10007000001F101010101F00001F181818181F0064
:10008000001F1C1C1C1C1F00001F1E1E1E1E1F000C
:10009000001F1F1F1F1F1F0003070F1F0F07030055
:1000A000181C1E1F1E1C180011241FBECFEFD4E009
:1000B000DEBFCDBF11E0A0E0B1E0E6E7F8E102C0AD
:1000C00005900D92A236B107D9F711E0A2E6B1E092
:1000D00001C01D92A537B107E1F748D40C94390C43
:1000E0008FCF1F920F920FB60F921124EF92FF92B3
:1000F0000F931F932F933F934F935F936F937F9330
:100100008F939F93AF93BF93EF93FF936091790089
:1001100070E0660F771F660F771F882777FD809541
:10012000982FCAD72CE53FE842E45EE30E9410090D
:1001300060936701709368018093690190936A01ED
:1001400060911D0170911E0180911F01909120010D
:1001500020916201309163014091640150916501E9
:10016000E0906701F09068010091690110916A01C7
:10017000A0D6A801970101D71816ACF090911C01E8
:10018000892F86958695869580FD34C0EBE2F0E058
:10019000808181608083808180648083892F8862F0
:1001A00080931C0127C06091670170916801809164
:1001B000690190916A0120911D0130911E014091C9
:1001C0001F0150912001D9D61816A4F090911C015E
:1001D000892F86958695869580FF0CC0EBE2F0E02E
:1001E00080818E7F808380818F7B8083892F877D34
:1001F00080931C01FF91EF91BF91AF919F918F91DF
:100200007F916F915F914F913F912F911F910F912E
:10021000FF90EF900F900FBE0F901F9018951F92B8
:100220000F920FB60F9211248F939F93AF93BF93AA
:10023000EF93FF938091670190916801A09169010C
:10024000B0916A01E4E7F1E08AE08083379780812A
:100250008093C60081E090E090936C0180936B01E5
:10026000E1ECF0E0808180628083809166018F5FA5
:1002700080936601809166018A3039F4109266019C
:1002800080911C01806180931C01FF91EF91BF91CF
:10029000AF919F918F910F900FBE0F901F90189567
:1002A0001F920F920FB60F9211240F900FBE0F9056
:1002B0001F9018951F920F920FB60F9211248F93D3
:1002C0009F93EF93FF93E0916B01F0916C01E359E1
:1002D000FE4F80818093C60080916B0190916C01EC
:1002E000019690936C0180936B0180916B019091CA
:1002F0006C01089729F4E1ECF0E080818F7D808328
:10030000FF91EF919F918F910F900FBE0F901F90D3
:1003100018951F920F920FB60F9211240F900FBED7
:100320000F901F9018951F920F920FB60F921124E5
:100330002F933F934F935F936F937F938F939F93ED
:10034000AF93BF93EF93FF9380911C0181608093E3
:100350001C01A7D5FF91EF91BF91AF919F918F9114
:100360007F916F915F914F913F912F910F900FBEB1
:100370000F901F9018952DB73EB7285030400FB6FC
:10038000F8943EBF0FBE2DBFEDB7FEB731969183F7
:10039000808386E091E093838283448355836683E0
:1003A0007783A1D78DB79EB708960FB6F8949EBFF6
:1003B0000FBE8DBF08952F923F924F925F926F9222
:1003C0007F928F929F92AF92BF92CF92DF92EF92E5
:1003D000FF920F931F93DF93CF93CDB7DEB7CF5428
:1003E000D0400FB6F894DEBF0FBECDBFDE01119630
:1003F000E2E2F1E080E401900D928150E1F760913A
:100400001D0170911E0180911F0190912001C090EB
:100410006201D0906301E0906401F0906501B090BA
:10042000210100911C010695069510E001701070E5
:1004300010D6FE01EF5BFF4F71836083C701B601E9
:1004400008D6FE01ED5BFF4F71836083FE01EB5B1D
:10045000FF4FB0821182FE01E95BFF4F11830083E1
:1004600078D4CC24DD240F2EFBE28F2E9924F02D9E
:100470000F2EF1E44F2E5524F02D4C0E5D1E80E022
:1004800090E02F968FAF2F9760969FAF6097EBC14C
:10049000F401808183FD8FC1292F2F7E20931C01C1
:1004A00010926601C601880F991FF201E80FF91F2B
:1004B00020803180F401808182FF7DC1C601829558
:1004C0009295907F9827807F98276624772463945D
:1004D0006C0E7D1E680E791EC601880F991F520191
:1004E000A80EB91EF401808185FD92C0822F8F7EF7
:1004F00080931C0110926601F501808191819C011D
:100500002F5F3F4FF2E0CF16D104C1F183E0C81650
:10051000D10434F4E1E0CE16D10409F06EC00BC072
:10052000F3E0CF16D10409F449C084E0C816D10421
:1005300009F063C04DC0B901882777FD8095982FD9
:10054000BBD57B018C0120E030E040E751E415D5BC
:1005500088231CF48FE090E058C0C801B70120E068
:1005600030E040EA51E458D618161CF484E190E0DB
:100570004CC0C801B7016DD5CB0147C0B901882770
:1005800077FD8095982F98D57B018C0120E030E095
:1005900040E050E0F2D4882394F1C801B70120E094
:1005A00030E040E85FE338D618161CF481E090E0B4
:1005B0002CC0C801B7014DD5CB0127C033231CF493
:1005C0008FEF93E022C0E4E020303E07B4F017C084
:1005D000C901522F492F1216130624F481E090E02E
:1005E000582F492F852F942F99237CF42F968FAD68
:1005F0002F9760969FAD609708C0C90106C02F96DF
:100600008FAD2F9760969FAD6097F50191838083A2
:10061000F401808184FD93C080911C018F7E8093C2
:100620001C0110926601F501808191819C0121508D
:100630003040F2E0CF16D104C1F183E0C816D104F6
:1006400034F4E1E0CE16D10409F06EC00BC0F3E043
:10065000CF16D10409F449C084E0C816D10409F0CA
:1006600063C04DC0B901882777FD8095982F24D5A8
:100670007B018C0120E030E040E751E47ED4882308
:100680001CF48FE090E058C0C801B70120E030E0D2
:1006900040EA51E4C1D518161CF484E190E04CC046
:1006A000C801B701D6D4CB0147C0B901882777FD6F
:1006B0008095982F01D57B018C0120E030E040E04F
:1006C00050E05BD4882394F1C801B70120E030E00A
:1006D00040E85FE3A1D518161CF481E090E02CC03F
:1006E000C801B701B6D4CB0127C033231CF48FEF68
:1006F00093E022C0E4E020303E07B4F017C0C90107
:10070000522F492F1216130624F481E090E0582F3F
:10071000492F852F942F99237CF42F968FAD2F97F7
:1007200060969FAD609708C0C90106C02F968FAD37
:100730002F9760969FAD6097F50191838083F401B8
:10074000808183FD21C0F3E0CF16D10449F0C601BA
:10075000880F991FF201E80FF91F208211822BC028
:100760002114310459F09101220F331F220F331F3E
:1007700080911C01822B80931C011DC080911C0163
:100780008B7F80931C0117C0E4D280E060E0FBD235
:10079000C30160E1E0D280E061E0F5D2F501808143
:1007A000918161E0D8D220911C0124FD04C0F401A4
:1007B000808182FD97CECDD280E060E0E4D2C60198
:1007C00082959295907F9827807F982721E030E04E
:1007D0002C0F3D1F820F931F60E1BDD280E061E0CE
:1007E000D2D2C601880F991FF201E80FF91F80814C
:1007F000918161E0B0D2F401808185FD18C08091C3
:100800001C018F7E80931C01109266010894C11C0C
:10081000D11CDD2034F40F2EF3E0CF2EDD24F02D9B
:1008200006C0F4E0CF16D10414F0CC24DD24F4018A
:10083000808184FD18C080911C018F7E80931C01F3
:10084000109266010894C108D108DD2034F40F2EFF
:10085000F3E0CF2EDD24F02D06C0F4E0CF16D10456
:1008600014F0CC24DD2490911C0194FD04C0F4010B
:10087000808182FD0DCE892F8D7E80931C01109288
:10088000660167D280E060E07ED28CE091E066E0B5
:1008900062D286E060E077D24091670150916801B2
:1008A0006091690170916A018E01075B1F4FC80159
:1008B00062DDC80168E04FD280911C018695869563
:1008C000869580FF39C080E061E05DD283E191E0F0
:1008D00068E041D288E061E056D260916701709192
:1008E00068018091690190916A0120911D01309108
:1008F0001E0140911F0150912001E0906201F09093
:10090000630100916401109165010F2EF9E4CF2E6F
:10091000DD24F02DCC0EDD1ECBD2A801970131D302
:1009200020E030E048EC52E47BD4AB01BC01C601CE
:1009300022DDC60168E00FD2C15BDF4F0FB6F8942D
:10094000DEBF0FBECDBFCF91DF911F910F91FF9002
:10095000EF90DF90CF90BF90AF909F908F907F905F
:100960006F905F904F903F902F9008956F927F927D
:100970008F929F92AF92BF92CF92DF92EF92FF92AF
:100980000F931F93DF93CF9300D000D00F92CDB77A
:10099000DEB783E390E09093C5008093C400E2EC5F
:1009A000F0E080818F7D808380818F7E8083A1ECC9
:1009B000B0E08C918B7F8C93808184608083808178
:1009C000826080838081877F80838C9188608C9314
:1009D0008C918F7E8C938C918F778C938C9180648B
:1009E0008C938C918F7D8C93E7E2F0E080818E7FF9
:1009F0008083EAE2F0E081EC80838081837C8083E5
:100A00008CE38BB9ECE7F0E0808180648083ABE716
:100A1000B0E08C9183608C938081806280830AE750
:100A200010E0F8018081806280838081886080830B
:100A3000808180688083EEE7F0E080818160808340
:100A4000E4E4F0E08081826080838091210187BDB1
:100A5000E5E4F0E0808184608083EEE6F0E0808170
:100A60008260808385E08093B100E6EBF0E08081D6
:100A700080628083E0E7F0E0808181608083B2D192
:100A8000E4E6F0E0808180688083808188608083F4
:100A9000808184608083E0E5F0E0808180688083ED
:100AA000F80180818064808378940F2EF9E2CF2E44
:100AB000DD24F02D0F2EFCE08F2EF1E09F2EF02D87
:100AC0005E010894A11CB11C0F2EF3E16F2EF1E022
:100AD0007F2EF02DF601808184FF06C0808185FF86
:100AE00003C0808182FD09C080911C018F7E10921D
:100AF0006601816080931C01D4D1F601808183FD61
:100B000013C080911C018F7E80931C01109266019E
:100B100080FD04C0816080931C01C3D180911C01C1
:100B2000826080931C0147DC90911C01892F86957F
:100B30008695869580FF56C092FD54C0109266013E
:100B4000892F8F7E80931C01ACD103D180E060E0BF
:100B50001AD1C40166E0FFD086E060E014D1409174
:100B60006701509168016091690170916A01C50146
:100B700002DCC50168E0EFD080911C0183FF80C0DA
:100B800080E061E000D1C30168E0E5D088E061E089
:100B9000FAD060916701709168018091690190912C
:100BA0006A0120911D0130911E0140911F01509159
:100BB0002001E0906201F0906301009164011091C6
:100BC000650176D1A8019701DCD120E030E048EC46
:100BD00052E426D3AB01BC01C501CDDBC50168E001
:100BE000BAD04EC090FF4CC0B4D080E060E0CBD013
:100BF000C40166E0B0D086E060E0C5D040916701F6
:100C0000509168016091690170916A01C501B3DB7F
:100C1000C50168E0A0D080911C0183FF31C080E055
:100C200061E0B1D0C30168E096D088E061E0ABD06C
:100C300060916701709168018091690190916A01EA
:100C400020911D0130911E0140911F015091200102
:100C5000E0906201F09063010091640110916501E0
:100C600027D1A80197018DD120E030E048EC52E473
:100C7000D7D2AB01BC01C5017EDBC50168E06BD0FA
:100C800080911C0184FF26CF80FF24CF8E7F80932C
:100C90001C0100D11FCFCF93DF93982F92959F70A7
:100CA000A5E2B0E09C93E8E2F0E09081926090834E
:100CB0009081986090832AEF30E0E9012197F1F765
:100CC0009081977F908390819D7F9083E901219708
:100CD000F1F78F708C93808182608083808188603F
:100CE0008083C9010197F1F78081877F80838081AC
:100CF0008D7F8083C9010197F1F7DF91CF9108952E
:100D0000CF93DF93982F92959F70A5E2B0E09C93CC
:100D1000E8E2F0E09081986090832AEF30E0E9010A
:100D20002197F1F79081977F9083E9012197F1F75F
:100D30008F708C93808188608083C9010197F1F75F
:100D40008081877F8083C9010197F1F7DF91CF917F
:100D5000089581E0D5CF0F931F93CF93DF939C012C
:100D6000062F009759F0662349F0182F282FE90124
:100D7000899191DF9E01211B2017D0F3DF91CF9144
:100D80001F910F910895623031F0633031F061307E
:100D900029F4805C03C08C5E01C08C5A8068B0CF9F
:100DA000EF92FF920F931F93CF93DF937C01660F17
:100DB000660F660F062F0064C0E0D0E0F701EC0F6D
:100DC000FD1F1491802F8C0F9BDF812F64DF2196F4
:100DD000C830D10599F7DF91CF911F910F91FF9006
:100DE000EF9008951F93CF93DF9386EA9EE00197DB
:100DF000F1F745E250E0FA011082A8E2B0E01C925F
:100E0000E4E2F0E080818F608083E7E2F0E08081BF
:100E10008E60808393E0FA0190838C9188608C933C
:100E20002AEF30E0F9013197F1F78C91877F8C93AD
:100E3000F9013197F1F7FA0190838C9188608C93D6
:100E4000C9010197F1F78C91877F8C93C9010197B4
:100E5000F1F782E080838C9188608C93C9010197BF
:100E6000F1F78C91877F8C93C9010197F1F788E2A4
:100E700047DF8CE045DFC8E6D0E060E0162F1F5F5B
:100E8000CE018EDF2896612F1830C1F7DF91CF9108
:100E90001F910895EBE2F0E080818F77808388E0F6
:100EA0002FCFEBE2F0E08081806880838CE028CF58
:100EB0005058BB27AA270ED075C166D130F06BD130
:100EC00020F031F49F3F11F41EF45BC10EF4E09565
:100ED000E7FB51C1E92F77D180F3BA176207730797
:100EE0008407950718F071F49EF58FC10EF4E09514
:100EF0000B2EBA2FA02D0B01B90190010C01CA01D4
:100F0000A0011124FF27591B99F0593F50F4503E7E
:100F100068F11A16F040A22F232F342F4427585F70
:100F2000F3CF469537952795A795F0405395C9F788
:100F30007EF41F16BA0B620B730B840BBAF0915040
:100F4000A1F0FF0FBB1F661F771F881FC2F70EC0DF
:100F5000BA0F621F731F841F48F4879577956795B2
:100F6000B795F7959E3F08F0B3CF9395880F08F09B
:100F70009927EE0F979587950895D9D008F481E0C9
:100F800008950CD00FC107D140F0FED030F021F40D
:100F90005F3F19F0F0C0511139C1F3C014D198F37B
:100FA0009923C9F35523B1F3951B550BBB27AA27EA
:100FB00062177307840738F09F5F5F4F220F331F5C
:100FC000441FAA1FA9F333D00E2E3AF0E0E830D028
:100FD00091505040E695001CCAF729D0FE2F27D02B
:100FE000660F771F881FBB1F261737074807AB07F9
:100FF000B0E809F0BB0B802DBF01FF2793585F4F6E
:101000002AF09E3F510568F0B6C000C15F3FECF387
:10101000983EDCF3869577956795B795F7959F5F32
:10102000C9F7880F911D9695879597F90895E1E086
:10103000660F771F881FBB1F621773078407BA07E5
:1010400020F0621B730B840BBA0BEE1F88F7E09540
:10105000089504D06894B111D9C00895BCD088F027
:101060009F5790F0B92F9927B751A0F0D1F0660F94
:10107000771F881F991F1AF0BA95C9F712C0B130AF
:1010800081F0C3D0B1E00895C0C0672F782F8827C2
:10109000B85F39F0B93FCCF3869577956795B395EE
:1010A000D9F73EF490958095709561957F4F8F4F5D
:1010B0009F4F0895E89409C097FB3EF49095809562
:1010C000709561957F4F8F4F9F4F9923A9F0F92F0E
:1010D00096E9BB279395F695879577956795B7958C
:1010E000F111F8CFFAF4BB0F11F460FF1BC06F5F72
:1010F0007F4F8F4F9F4F16C0882311F096E911C084
:10110000772321F09EE8872F762F05C0662371F0A4
:1011100096E8862F70E060E02AF09A95660F771FB8
:10112000881FDAF7880F9695879597F90895990F94
:101130000008550FAA0BE0E8FEEF16161706E807A1
:10114000F907C0F012161306E407F50798F0621BC2
:10115000730B840B950B39F40A2661F0232B242B97
:10116000252B21F408950A2609F4A140A6958FEFB6
:10117000811D811D089597F99F6780E870E060E008
:1011800008959FEF80EC089500240A941616170620
:1011900018060906089500240A9412161306140668
:1011A00005060895092E0394000C11F4882352F0CB
:1011B000BB0F40F4BF2B11F460FF04C06F5F7F4F83
:1011C0008F4F9F4F089557FD9058440F551F59F06A
:1011D0005F3F71F04795880F97FB991F61F09F3F24
:1011E00079F087950895121613061406551FF2CF4D
:1011F0004695F1DF08C0161617061806991FF1CF9D
:1012000086957105610508940895E894BB276627C3
:101210007727CB0197F908958ADF08F48FEF0895B7
:101220000BD0C0CFB1DF28F0B6DF18F0952309F05E
:10123000A2CFA7CF1124EACFC6DFA0F3959FD1F3A9
:10124000950F50E0551F629FF001729FBB27F00D74
:10125000B11D639FAA27F00DB11DAA1F649F6627C9
:10126000B00DA11D661F829F2227B00DA11D621F18
:10127000739FB00DA11D621F839FA00D611D221FD2
:10128000749F3327A00D611D231F849F600D211DB6
:10129000822F762F6A2F11249F5750408AF0E1F059
:1012A00088234AF0EE0FFF1FBB1F661F771F881FA2
:1012B00091505040A9F79E3F510570F05CCFA6CFEA
:1012C0005F3FECF3983EDCF3869577956795B7958D
:1012D000F795E7959F5FC1F7FE2B880F911D9695B7
:1012E000879597F90895AEE0B0E0E8E7F9E098C295
:1012F0000D891E8986E08C831A8309838FEF9FE70F
:101300009E838D839E01275E3F4FCE0101966F899C
:10131000788DA90109D02F813885020F131FF8019C
:1013200010822E96E4E098C2ABE0B0E0E9E9F9E083
:1013300069C23C012B015A01FC011782168283818C
:1013400081FD03C06FEF7FEFB9C19AE0892E1E01C6
:101350000894211C311CF3012381F20123FD8591A6
:1013600023FF81912F01882309F4A5C1853239F427
:1013700023FD859123FF81912F01853221F490E097
:10138000B301B6D1E8CF982FFF24EE249924FFE1D2
:10139000FF15D0F09B3269F09C3228F4903259F05E
:1013A000933291F40EC09D3249F0903369F441E0DC
:1013B00024C052E0F52A84E0F82A28C098E0F92AEF
:1013C00025C0E0E1FE2A22C0F7FC29C0892F805306
:1013D0008A3070F4F6FE05C0989C902C1124980E6B
:1013E00015C0E89CE02C1124E80EF0E2FF2A0EC0A4
:1013F0009E3229F4F6FC5FC140E4F42A07C09C3613
:1014000019F450E8F52A02C0983649F4F20123FD98
:10141000959123FF91912F01992309F0B8CF892F3E
:101420008554833018F08052833038F444E050E023
:10143000A40EB51E5FE359830FC0933631F0933786
:1014400079F0933509F052C01FC0F501808189837E
:1014500042E050E0A40EB51E610101E010E011C0B1
:10146000F501C080D180F6FC03C06FEF7FEF02C0B2
:10147000692D70E042E050E0A40EB51EC6012DD1EA
:101480008C015FE7F52213C0F501C080D180F6FC26
:1014900003C06FEF7FEF02C0692D70E042E050E0C3
:1014A000A40EB51EC6010ED18C0150E8F52AF3FE3C
:1014B00006C018C080E290E0B3011AD1EA948E2DE4
:1014C00090E008171907B0F30DC0F601F7FC8591FD
:1014D000F7FE81916F0190E0B3010AD1E110EA9427
:1014E000015010400115110581F7E2C0943611F04A
:1014F000993661F5F7FE08C0F501208131814281FE
:10150000538184E090E00AC0F501808191819C01C3
:10151000442737FD4095542F82E090E0A80EB91E75
:101520009FE6F92257FF09C05095409530952195C7
:101530003F4F4F4F5F4FE0E8FE2ACA01B901A101BA
:101540002AE030E001D1D82ED2183FC0953729F4D7
:101550001F2D1F7E2AE030E01DC01F2D197F9F36F2
:1015600061F0903720F4983509F0A5C00FC090378E
:1015700039F0983709F09FC004C028E030E00AC075
:10158000106114FD146020E130E004C014FD166009
:1015900020E132E017FF08C0F5016081718182818E
:1015A000938144E050E008C0F50180819181BC0145
:1015B00080E090E042E050E0A40EB51EA101C4D04E
:1015C000D82ED2188FE7F82EF122F6FE0BC05EEF70
:1015D000F522D91438F4F4FE07C0F2FC05C08FEEF2
:1015E000F82202C01D2D01C0192DF4FE0DC0FE0110
:1015F000ED0DF11D8081803319F499EEF92208C0B8
:101600001F5FF2FE05C003C08F2D867809F01F5FB3
:101610000F2DF3FC13C0F0FE0EC01E1510F09D2C14
:101620000AC09D2C9E0C911A1E2D05C080E290E0F0
:10163000B3015ED01F5F1E15C8F304C01E1510F461
:10164000E11A01C0EE2404FF0EC080E390E0B30174
:101650004FD002FF1BC001FD03C088E790E00EC021
:1016600088E590E00BC0802F867881F001FF02C0F2
:101670008BE201C080E2F7FC8DE290E0B30138D04C
:1016800005C080E390E0B30133D09A94D914C8F335
:10169000DA94F101ED0DF11D808190E0B30128D0C5
:1016A000DD20B1F705C080E290E0B30121D0EA94DB
:1016B000EE20C9F750CEF30166817781CB012B96DE
:1016C000E2E1BCC0FC010590615070400110D8F708
:1016D000809590958E0F9F1F0895FC01615070407A
:1016E00001900110D8F7809590958E0F9F1F089557
:1016F0000F931F93CF93DF938C01EB018B8181FFBD
:101700001BC082FF0DC02E813F818C819D812817D7
:10171000390764F4E881F9810193F983E88306C00D
:10172000E885F985802F0995892B31F48E819F8179
:1017300001969F838E8302C00FEF1FEFC801DF91D8
:10174000CF911F910F910895FA01AA27283051F1E6
:10175000203181F1E8946F936E7F6E5F7F4F8F4FE2
:101760009F4FAF4FB1E03ED0B4E03CD0670F781F41
:10177000891F9A1FA11D680F791F8A1F911DA11D26
:101780006A0F711D811D911DA11D20D009F468945F
:101790003F912AE0269F11243019305D3193DEF607
:1017A000CF010895462F4770405D4193B3E00FD0BD
:1017B000C9F7F6CF462F4F70405D4A3318F0495DA8
:1017C00031FD4052419302D0A9F7EACFB4E0A6958B
:1017D0009795879577956795BA95C9F700976105AD
:1017E000710508959B01AC010A2E06945795479503
:1017F00037952795BA95C9F7620F731F841F951FF8
:10180000A01D08952F923F924F925F926F927F9208
:101810008F929F92AF92BF92CF92DF92EF92FF9200
:101820000F931F93CF93DF93CDB7DEB7CA1BDB0BAC
:101830000FB6F894DEBF0FBECDBF09942A88398851
:1018400048885F846E847D848C849B84AA84B98458
:10185000C884DF80EE80FD800C811B81AA81B98164
:10186000CE0FD11D0FB6F894DEBF0FBECDBFED0178
:061870000895F894FFCF7B
:1018760025342E38660025322E32660054454D50EA
:101886003A2000434F4F4C494E472000040000A029
:1018960041805461726765742074656D70202028DC
:1018A6003129546F6C6572616E6365202020202893
:1018B60032294D65617375726520726174652028E1
:1018C6003329502D73617665206D6F64652020285D
:0218D6003429B3
:00000001FF
